{
  "_format": "hh-sol-artifact-1",
  "contractName": "MusicStore",
  "sourceName": "contracts/MusicStore.sol",
  "abi": [
    {
      "inputs": [],
      "stateMutability": "nonpayable",
      "type": "constructor"
    },
    {
      "anonymous": false,
      "inputs": [
        {
          "indexed": false,
          "internalType": "uint256",
          "name": "id",
          "type": "uint256"
        },
        {
          "indexed": false,
          "internalType": "address",
          "name": "Author",
          "type": "address"
        },
        {
          "indexed": false,
          "internalType": "bytes32",
          "name": "playlistTitle",
          "type": "bytes32"
        },
        {
          "indexed": false,
          "internalType": "uint256",
          "name": "releaseDate",
          "type": "uint256"
        },
        {
          "indexed": false,
          "internalType": "uint256",
          "name": "noOfStreams",
          "type": "uint256"
        }
      ],
      "name": "Played",
      "type": "event"
    },
    {
      "anonymous": false,
      "inputs": [
        {
          "indexed": false,
          "internalType": "address",
          "name": "subscriber",
          "type": "address"
        },
        {
          "indexed": false,
          "internalType": "uint256",
          "name": "price",
          "type": "uint256"
        },
        {
          "indexed": false,
          "internalType": "uint256",
          "name": "plan",
          "type": "uint256"
        }
      ],
      "name": "Subscribed",
      "type": "event"
    },
    {
      "anonymous": false,
      "inputs": [
        {
          "indexed": false,
          "internalType": "address",
          "name": "author",
          "type": "address"
        },
        {
          "indexed": false,
          "internalType": "bytes32",
          "name": "title",
          "type": "bytes32"
        },
        {
          "indexed": false,
          "internalType": "string",
          "name": "description",
          "type": "string"
        },
        {
          "indexed": false,
          "internalType": "bytes32",
          "name": "genre",
          "type": "bytes32"
        },
        {
          "indexed": false,
          "internalType": "string[]",
          "name": "tracks",
          "type": "string[]"
        },
        {
          "indexed": false,
          "internalType": "string",
          "name": "coverImage",
          "type": "string"
        },
        {
          "indexed": false,
          "internalType": "uint256",
          "name": "releaseDate",
          "type": "uint256"
        }
      ],
      "name": "Uploaded",
      "type": "event"
    },
    {
      "anonymous": false,
      "inputs": [
        {
          "indexed": false,
          "internalType": "uint256",
          "name": "amount",
          "type": "uint256"
        },
        {
          "indexed": false,
          "internalType": "address",
          "name": "user",
          "type": "address"
        },
        {
          "indexed": false,
          "internalType": "uint256",
          "name": "balance",
          "type": "uint256"
        }
      ],
      "name": "Withdrawn",
      "type": "event"
    },
    {
      "inputs": [],
      "name": "getAllPlaylists",
      "outputs": [
        {
          "components": [
            {
              "internalType": "address",
              "name": "author",
              "type": "address"
            },
            {
              "internalType": "uint256",
              "name": "id",
              "type": "uint256"
            },
            {
              "internalType": "bytes32",
              "name": "title",
              "type": "bytes32"
            },
            {
              "internalType": "string",
              "name": "description",
              "type": "string"
            },
            {
              "internalType": "bytes32",
              "name": "genre",
              "type": "bytes32"
            },
            {
              "internalType": "string[]",
              "name": "tracks",
              "type": "string[]"
            },
            {
              "internalType": "string",
              "name": "coverImage",
              "type": "string"
            },
            {
              "internalType": "uint256",
              "name": "releaseDate",
              "type": "uint256"
            },
            {
              "internalType": "uint256",
              "name": "ratings",
              "type": "uint256"
            },
            {
              "internalType": "uint256",
              "name": "noOfStreams",
              "type": "uint256"
            }
          ],
          "internalType": "struct MusicStore.Collection[]",
          "name": "",
          "type": "tuple[]"
        }
      ],
      "stateMutability": "view",
      "type": "function"
    },
    {
      "inputs": [
        {
          "internalType": "address",
          "name": "_user",
          "type": "address"
        }
      ],
      "name": "getUserDetails",
      "outputs": [
        {
          "components": [
            {
              "internalType": "bool",
              "name": "isSubscribed",
              "type": "bool"
            },
            {
              "internalType": "uint256",
              "name": "playablePlaylists",
              "type": "uint256"
            },
            {
              "internalType": "string[]",
              "name": "playedPlaylists",
              "type": "string[]"
            },
            {
              "components": [
                {
                  "internalType": "address",
                  "name": "author",
                  "type": "address"
                },
                {
                  "internalType": "uint256",
                  "name": "id",
                  "type": "uint256"
                },
                {
                  "internalType": "bytes32",
                  "name": "title",
                  "type": "bytes32"
                },
                {
                  "internalType": "string",
                  "name": "description",
                  "type": "string"
                },
                {
                  "internalType": "bytes32",
                  "name": "genre",
                  "type": "bytes32"
                },
                {
                  "internalType": "string[]",
                  "name": "tracks",
                  "type": "string[]"
                },
                {
                  "internalType": "string",
                  "name": "coverImage",
                  "type": "string"
                },
                {
                  "internalType": "uint256",
                  "name": "releaseDate",
                  "type": "uint256"
                },
                {
                  "internalType": "uint256",
                  "name": "ratings",
                  "type": "uint256"
                },
                {
                  "internalType": "uint256",
                  "name": "noOfStreams",
                  "type": "uint256"
                }
              ],
              "internalType": "struct MusicStore.Collection[]",
              "name": "uploadedPlaylists",
              "type": "tuple[]"
            },
            {
              "internalType": "uint256[]",
              "name": "likedPlaylists",
              "type": "uint256[]"
            },
            {
              "internalType": "uint256[]",
              "name": "ratedPlaylists",
              "type": "uint256[]"
            },
            {
              "internalType": "uint256",
              "name": "amountEarned",
              "type": "uint256"
            }
          ],
          "internalType": "struct MusicStore.User",
          "name": "",
          "type": "tuple"
        }
      ],
      "stateMutability": "view",
      "type": "function"
    },
    {
      "inputs": [
        {
          "internalType": "address",
          "name": "_user",
          "type": "address"
        }
      ],
      "name": "getUserUploads",
      "outputs": [
        {
          "components": [
            {
              "internalType": "address",
              "name": "author",
              "type": "address"
            },
            {
              "internalType": "uint256",
              "name": "id",
              "type": "uint256"
            },
            {
              "internalType": "bytes32",
              "name": "title",
              "type": "bytes32"
            },
            {
              "internalType": "string",
              "name": "description",
              "type": "string"
            },
            {
              "internalType": "bytes32",
              "name": "genre",
              "type": "bytes32"
            },
            {
              "internalType": "string[]",
              "name": "tracks",
              "type": "string[]"
            },
            {
              "internalType": "string",
              "name": "coverImage",
              "type": "string"
            },
            {
              "internalType": "uint256",
              "name": "releaseDate",
              "type": "uint256"
            },
            {
              "internalType": "uint256",
              "name": "ratings",
              "type": "uint256"
            },
            {
              "internalType": "uint256",
              "name": "noOfStreams",
              "type": "uint256"
            }
          ],
          "internalType": "struct MusicStore.Collection[]",
          "name": "",
          "type": "tuple[]"
        }
      ],
      "stateMutability": "view",
      "type": "function"
    },
    {
      "inputs": [
        {
          "internalType": "address",
          "name": "_user",
          "type": "address"
        },
        {
          "internalType": "uint256",
          "name": "_playlistId",
          "type": "uint256"
        }
      ],
      "name": "isLiked",
      "outputs": [
        {
          "internalType": "bool",
          "name": "liked",
          "type": "bool"
        }
      ],
      "stateMutability": "view",
      "type": "function"
    },
    {
      "inputs": [
        {
          "internalType": "uint256",
          "name": "_playlistId",
          "type": "uint256"
        }
      ],
      "name": "likePlaylist",
      "outputs": [],
      "stateMutability": "nonpayable",
      "type": "function"
    },
    {
      "inputs": [
        {
          "internalType": "uint256",
          "name": "_id",
          "type": "uint256"
        }
      ],
      "name": "play",
      "outputs": [
        {
          "internalType": "bool",
          "name": "success",
          "type": "bool"
        }
      ],
      "stateMutability": "nonpayable",
      "type": "function"
    },
    {
      "inputs": [
        {
          "internalType": "uint256",
          "name": "",
          "type": "uint256"
        }
      ],
      "name": "playlists",
      "outputs": [
        {
          "internalType": "address",
          "name": "author",
          "type": "address"
        },
        {
          "internalType": "uint256",
          "name": "id",
          "type": "uint256"
        },
        {
          "internalType": "bytes32",
          "name": "title",
          "type": "bytes32"
        },
        {
          "internalType": "string",
          "name": "description",
          "type": "string"
        },
        {
          "internalType": "bytes32",
          "name": "genre",
          "type": "bytes32"
        },
        {
          "internalType": "string",
          "name": "coverImage",
          "type": "string"
        },
        {
          "internalType": "uint256",
          "name": "releaseDate",
          "type": "uint256"
        },
        {
          "internalType": "uint256",
          "name": "ratings",
          "type": "uint256"
        },
        {
          "internalType": "uint256",
          "name": "noOfStreams",
          "type": "uint256"
        }
      ],
      "stateMutability": "view",
      "type": "function"
    },
    {
      "inputs": [
        {
          "internalType": "uint256",
          "name": "",
          "type": "uint256"
        }
      ],
      "name": "playlistsArray",
      "outputs": [
        {
          "internalType": "address",
          "name": "author",
          "type": "address"
        },
        {
          "internalType": "uint256",
          "name": "id",
          "type": "uint256"
        },
        {
          "internalType": "bytes32",
          "name": "title",
          "type": "bytes32"
        },
        {
          "internalType": "string",
          "name": "description",
          "type": "string"
        },
        {
          "internalType": "bytes32",
          "name": "genre",
          "type": "bytes32"
        },
        {
          "internalType": "string",
          "name": "coverImage",
          "type": "string"
        },
        {
          "internalType": "uint256",
          "name": "releaseDate",
          "type": "uint256"
        },
        {
          "internalType": "uint256",
          "name": "ratings",
          "type": "uint256"
        },
        {
          "internalType": "uint256",
          "name": "noOfStreams",
          "type": "uint256"
        }
      ],
      "stateMutability": "view",
      "type": "function"
    },
    {
      "inputs": [
        {
          "internalType": "uint256",
          "name": "_playlistId",
          "type": "uint256"
        },
        {
          "internalType": "address",
          "name": "_user",
          "type": "address"
        },
        {
          "internalType": "uint256",
          "name": "_rating",
          "type": "uint256"
        }
      ],
      "name": "rateAlbum",
      "outputs": [],
      "stateMutability": "nonpayable",
      "type": "function"
    },
    {
      "inputs": [
        {
          "internalType": "uint256",
          "name": "",
          "type": "uint256"
        },
        {
          "internalType": "uint256",
          "name": "",
          "type": "uint256"
        }
      ],
      "name": "ratings",
      "outputs": [
        {
          "internalType": "uint256",
          "name": "",
          "type": "uint256"
        }
      ],
      "stateMutability": "view",
      "type": "function"
    },
    {
      "inputs": [
        {
          "internalType": "uint256",
          "name": "plan",
          "type": "uint256"
        },
        {
          "internalType": "address payable",
          "name": "_user",
          "type": "address"
        },
        {
          "internalType": "uint256",
          "name": "price",
          "type": "uint256"
        }
      ],
      "name": "subscribe",
      "outputs": [
        {
          "internalType": "bool",
          "name": "success",
          "type": "bool"
        }
      ],
      "stateMutability": "payable",
      "type": "function"
    },
    {
      "inputs": [
        {
          "internalType": "bytes32",
          "name": "_title",
          "type": "bytes32"
        },
        {
          "internalType": "string",
          "name": "_description",
          "type": "string"
        },
        {
          "internalType": "bytes32",
          "name": "_genre",
          "type": "bytes32"
        },
        {
          "internalType": "string[]",
          "name": "_tracks",
          "type": "string[]"
        },
        {
          "internalType": "string",
          "name": "_coverImage",
          "type": "string"
        },
        {
          "internalType": "uint256",
          "name": "_releaseDate",
          "type": "uint256"
        }
      ],
      "name": "uploadPlaylist",
      "outputs": [
        {
          "internalType": "bool",
          "name": "success",
          "type": "bool"
        }
      ],
      "stateMutability": "payable",
      "type": "function"
    },
    {
      "inputs": [
        {
          "internalType": "address",
          "name": "",
          "type": "address"
        }
      ],
      "name": "users",
      "outputs": [
        {
          "internalType": "bool",
          "name": "isSubscribed",
          "type": "bool"
        },
        {
          "internalType": "uint256",
          "name": "playablePlaylists",
          "type": "uint256"
        },
        {
          "internalType": "uint256",
          "name": "amountEarned",
          "type": "uint256"
        }
      ],
      "stateMutability": "view",
      "type": "function"
    },
    {
      "inputs": [
        {
          "internalType": "uint256",
          "name": "_amount",
          "type": "uint256"
        }
      ],
      "name": "withdraw",
      "outputs": [],
      "stateMutability": "payable",
      "type": "function"
    }
  ],
  "bytecode": "0x60806040526000600255600060035534801561001a57600080fd5b5073cf9ab7dbed8d5d104167012c91a4fb0b7504cd2b6000806101000a81548173ffffffffffffffffffffffffffffffffffffffff021916908373ffffffffffffffffffffffffffffffffffffffff160217905550732d7882bedcbfddce29ba99965dd3cdf7fcb10a1e600460006101000a81548173ffffffffffffffffffffffffffffffffffffffff021916908373ffffffffffffffffffffffffffffffffffffffff160217905550613a45806100d36000396000f3fe6080604052600436106100dd5760003560e01c80636898f82b1161007f578063a87430ba11610059578063a87430ba146102eb578063ae0e24541461032a578063cc3d967b14610353578063ecc6362f14610390576100dd565b80636898f82b1461025a57806369f63db9146102975780637280345b146102c0576100dd565b8063346d971d116100bb578063346d971d1461015e578063412bd3481461019b57806344879930146101d8578063482ef3601461021d576100dd565b8063021683e1146100e2578063174562f3146101125780632e1a7d4d14610142575b600080fd5b6100fc60048036038101906100f791906126e0565b6103d5565b604051610109919061274e565b60405180910390f35b61012c600480360381019061012791906129cb565b61088b565b604051610139919061274e565b60405180910390f35b61015c60048036038101906101579190612aac565b610ca4565b005b34801561016a57600080fd5b5061018560048036038101906101809190612b17565b610f38565b604051610192919061274e565b60405180910390f35b3480156101a757600080fd5b506101c260048036038101906101bd9190612b57565b610fef565b6040516101cf9190612ea5565b60405180910390f35b3480156101e457600080fd5b506101ff60048036038101906101fa9190612aac565b611320565b60405161021499989796959493929190612f3e565b60405180910390f35b34801561022957600080fd5b50610244600480360381019061023f9190612fd9565b6114ae565b6040516102519190613019565b60405180910390f35b34801561026657600080fd5b50610281600480360381019061027c9190612aac565b6114df565b60405161028e919061274e565b60405180910390f35b3480156102a357600080fd5b506102be60048036038101906102b99190613034565b6117ea565b005b3480156102cc57600080fd5b506102d56119e5565b6040516102e29190612ea5565b60405180910390f35b3480156102f757600080fd5b50610312600480360381019061030d9190612b57565b611cd4565b60405161032193929190613087565b60405180910390f35b34801561033657600080fd5b50610351600480360381019061034c9190612aac565b611d0b565b005b34801561035f57600080fd5b5061037a60048036038101906103759190612b57565b611e14565b60405161038791906132b3565b60405180910390f35b34801561039c57600080fd5b506103b760048036038101906103b29190612aac565b612314565b6040516103cc99989796959493929190612f3e565b60405180910390f35b60003373ffffffffffffffffffffffffffffffffffffffff168373ffffffffffffffffffffffffffffffffffffffff161461040f57600080fd5b6000600560008573ffffffffffffffffffffffffffffffffffffffff1673ffffffffffffffffffffffffffffffffffffffff168152602001908152602001600020905060018514156105b757600460009054906101000a900473ffffffffffffffffffffffffffffffffffffffff1673ffffffffffffffffffffffffffffffffffffffff166323b872dd60008054906101000a900473ffffffffffffffffffffffffffffffffffffffff1630600b876104c89190613333565b6040518463ffffffff1660e01b81526004016104e693929190613364565b602060405180830381600087803b15801561050057600080fd5b505af1158015610514573d6000803e3d6000fd5b505050506040513d601f19601f8201168201806040525081019061053891906133c7565b50606481600101600082825461054e91906133f4565b9250508190555060018160000160006101000a81548160ff0219169083151502179055507ff94991dcbea6e8ac439cbc93bd9c62a4d39f04e0ad656df9a703f13552c2787f8484876040516105a5939291906134a9565b60405180910390a16001915050610884565b600285141561071c57600460009054906101000a900473ffffffffffffffffffffffffffffffffffffffff1673ffffffffffffffffffffffffffffffffffffffff166323b872dd60008054906101000a900473ffffffffffffffffffffffffffffffffffffffff1630600b8761062d9190613333565b6040518463ffffffff1660e01b815260040161064b93929190613364565b602060405180830381600087803b15801561066557600080fd5b505af1158015610679573d6000803e3d6000fd5b505050506040513d601f19601f8201168201806040525081019061069d91906133c7565b5060c88160010160008282546106b391906133f4565b9250508190555060018160000160006101000a81548160ff0219169083151502179055507ff94991dcbea6e8ac439cbc93bd9c62a4d39f04e0ad656df9a703f13552c2787f84848760405161070a939291906134a9565b60405180910390a16001915050610884565b600385141561088257600460009054906101000a900473ffffffffffffffffffffffffffffffffffffffff1673ffffffffffffffffffffffffffffffffffffffff166323b872dd60008054906101000a900473ffffffffffffffffffffffffffffffffffffffff1630600b876107929190613333565b6040518463ffffffff1660e01b81526004016107b093929190613364565b602060405180830381600087803b1580156107ca57600080fd5b505af11580156107de573d6000803e3d6000fd5b505050506040513d601f19601f8201168201806040525081019061080291906133c7565b5061012c81600101600082825461081991906133f4565b9250508190555060018160000160006101000a81548160ff0219169083151502179055507ff94991dcbea6e8ac439cbc93bd9c62a4d39f04e0ad656df9a703f13552c2787f848487604051610870939291906134a9565b60405180910390a16001915050610884565b505b9392505050565b6000600160008154809291906108a0906134e0565b919050555060006040518061014001604052803373ffffffffffffffffffffffffffffffffffffffff168152602001600154815260200189815260200188815260200187815260200186815260200185815260200184815260200160008152602001600081525090508060066000600154815260200190815260200160002060008201518160000160006101000a81548173ffffffffffffffffffffffffffffffffffffffff021916908373ffffffffffffffffffffffffffffffffffffffff16021790555060208201518160010155604082015181600201556060820151816003019080519060200190610996929190612492565b506080820151816004015560a08201518160050190805190602001906109bd929190612518565b5060c08201518160060190805190602001906109da929190612492565b5060e082015181600701556101008201518160080155610120820151816009015590505060088190806001815401808255809150506001900390600052602060002090600a020160009091909190915060008201518160000160006101000a81548173ffffffffffffffffffffffffffffffffffffffff021916908373ffffffffffffffffffffffffffffffffffffffff16021790555060208201518160010155604082015181600201556060820151816003019080519060200190610aa1929190612492565b506080820151816004015560a0820151816005019080519060200190610ac8929190612518565b5060c0820151816006019080519060200190610ae5929190612492565b5060e08201518160070155610100820151816008015561012082015181600901555050600560003373ffffffffffffffffffffffffffffffffffffffff1673ffffffffffffffffffffffffffffffffffffffff1681526020019081526020016000206003018190806001815401808255809150506001900390600052602060002090600a020160009091909190915060008201518160000160006101000a81548173ffffffffffffffffffffffffffffffffffffffff021916908373ffffffffffffffffffffffffffffffffffffffff16021790555060208201518160010155604082015181600201556060820151816003019080519060200190610beb929190612492565b506080820151816004015560a0820151816005019080519060200190610c12929190612518565b5060c0820151816006019080519060200190610c2f929190612492565b5060e082015181600701556101008201518160080155610120820151816009015550507fa85f7894e08727c06653121dcdb569203d767b1396b7191c29ad265f23be8f2033898989898989604051610c8d97969594939291906135af565b60405180910390a160019150509695505050505050565b6000600560003373ffffffffffffffffffffffffffffffffffffffff1673ffffffffffffffffffffffffffffffffffffffff1681526020019081526020016000206006015411610d29576040517f08c379a0000000000000000000000000000000000000000000000000000000008152600401610d20906136a5565b60405180910390fd5b80600560003373ffffffffffffffffffffffffffffffffffffffff1673ffffffffffffffffffffffffffffffffffffffff1681526020019081526020016000206006015411610dad576040517f08c379a0000000000000000000000000000000000000000000000000000000008152600401610da490613711565b60405180910390fd5b600460009054906101000a900473ffffffffffffffffffffffffffffffffffffffff1673ffffffffffffffffffffffffffffffffffffffff166323b872dd3033846040518463ffffffff1660e01b8152600401610e0c93929190613364565b602060405180830381600087803b158015610e2657600080fd5b505af1158015610e3a573d6000803e3d6000fd5b505050506040513d601f19601f82011682018060405250810190610e5e91906133c7565b5080600560003373ffffffffffffffffffffffffffffffffffffffff1673ffffffffffffffffffffffffffffffffffffffff1681526020019081526020016000206006016000828254610eb19190613731565b925050819055507fcf7d23a3cbe4e8b36ff82fd1b05b1b17373dc7804b4ebbd6e2356716ef2023728133600560003373ffffffffffffffffffffffffffffffffffffffff1673ffffffffffffffffffffffffffffffffffffffff16815260200190815260200160002060060154604051610f2d93929190613765565b60405180910390a150565b600080600560008573ffffffffffffffffffffffffffffffffffffffff1673ffffffffffffffffffffffffffffffffffffffff168152602001908152602001600020905060005b8160040180549050811015610fe2576006600085815260200190815260200160002060010154826004018281548110610fbb57610fba61379c565b5b90600052602060002001541415610fd757600192505050610fe9565b806001019050610f7f565b5060009150505b92915050565b6060600560008373ffffffffffffffffffffffffffffffffffffffff1673ffffffffffffffffffffffffffffffffffffffff168152602001908152602001600020600301805480602002602001604051908101604052809291908181526020016000905b8282101561131557838290600052602060002090600a0201604051806101400160405290816000820160009054906101000a900473ffffffffffffffffffffffffffffffffffffffff1673ffffffffffffffffffffffffffffffffffffffff1673ffffffffffffffffffffffffffffffffffffffff16815260200160018201548152602001600282015481526020016003820180546110f1906137fa565b80601f016020809104026020016040519081016040528092919081815260200182805461111d906137fa565b801561116a5780601f1061113f5761010080835404028352916020019161116a565b820191906000526020600020905b81548152906001019060200180831161114d57829003601f168201915b505050505081526020016004820154815260200160058201805480602002602001604051908101604052809291908181526020016000905b8282101561124e5783829060005260206000200180546111c1906137fa565b80601f01602080910402602001604051908101604052809291908181526020018280546111ed906137fa565b801561123a5780601f1061120f5761010080835404028352916020019161123a565b820191906000526020600020905b81548152906001019060200180831161121d57829003601f168201915b5050505050815260200190600101906111a2565b505050508152602001600682018054611266906137fa565b80601f0160208091040260200160405190810160405280929190818152602001828054611292906137fa565b80156112df5780601f106112b4576101008083540402835291602001916112df565b820191906000526020600020905b8154815290600101906020018083116112c257829003601f168201915b50505050508152602001600782015481526020016008820154815260200160098201548152505081526020019060010190611053565b505050509050919050565b6008818154811061133057600080fd5b90600052602060002090600a02016000915090508060000160009054906101000a900473ffffffffffffffffffffffffffffffffffffffff1690806001015490806002015490806003018054611385906137fa565b80601f01602080910402602001604051908101604052809291908181526020018280546113b1906137fa565b80156113fe5780601f106113d3576101008083540402835291602001916113fe565b820191906000526020600020905b8154815290600101906020018083116113e157829003601f168201915b505050505090806004015490806006018054611419906137fa565b80601f0160208091040260200160405190810160405280929190818152602001828054611445906137fa565b80156114925780601f1061146757610100808354040283529160200191611492565b820191906000526020600020905b81548152906001019060200180831161147557829003601f168201915b5050505050908060070154908060080154908060090154905089565b600760205281600052604060002081815481106114ca57600080fd5b90600052602060002001600091509150505481565b600080600560003373ffffffffffffffffffffffffffffffffffffffff1673ffffffffffffffffffffffffffffffffffffffff1681526020019081526020016000206001015411611565576040517f08c379a000000000000000000000000000000000000000000000000000000000815260040161155c906138c4565b60405180910390fd5b600160066000848152602001908152602001600020600901600082825461158c91906133f4565b9250508190555066038d7ea4c68000600560006006600086815260200190815260200160002060000160009054906101000a900473ffffffffffffffffffffffffffffffffffffffff1673ffffffffffffffffffffffffffffffffffffffff1673ffffffffffffffffffffffffffffffffffffffff168152602001908152602001600020600601600082825461162291906133f4565b925050819055507f3c3eade867c8404fd178945f4d9a2e146b820d758fc2b1fbbe99019011832af8826006600085815260200190815260200160002060000160009054906101000a900473ffffffffffffffffffffffffffffffffffffffff166006600086815260200190815260200160002060020154600660008781526020019081526020016000206007015460066000888152602001908152602001600020600901546040516116d89594939291906138e4565b60405180910390a16001600560003373ffffffffffffffffffffffffffffffffffffffff1673ffffffffffffffffffffffffffffffffffffffff16815260200190815260200160002060010160008282546117339190613731565b925050819055506000600560003373ffffffffffffffffffffffffffffffffffffffff1673ffffffffffffffffffffffffffffffffffffffff1681526020019081526020016000206001015414156117e1576000600560003373ffffffffffffffffffffffffffffffffffffffff1673ffffffffffffffffffffffffffffffffffffffff16815260200190815260200160002060000160006101000a81548160ff0219169083151502179055505b60019050919050565b6000600560008473ffffffffffffffffffffffffffffffffffffffff1673ffffffffffffffffffffffffffffffffffffffff1681526020019081526020016000209050600060066000868152602001908152602001600020905060005b82600501805490508110156119dd5760066000878152602001908152602001600020600101548360050182815481106118835761188261379c565b5b906000526020600020015414156118cf576040517f08c379a00000000000000000000000000000000000000000000000000000000081526004016118c690613983565b60405180910390fd5b82600501869080600181540180825580915050600190039060005260206000200160009091909190915055600760008781526020019081526020016000208490806001815401808255809150506001900390600052602060002001600090919091909150556000805b60076000898152602001908152602001600020805490508110156119a65760076000898152602001908152602001600020818154811061197b5761197a61379c565b5b90600052602060002001548261199191906133f4565b9150808061199e906134e0565b915050611938565b506007600088815260200190815260200160002080549050816119c99190613333565b836008018190555050806001019050611847565b505050505050565b60606008805480602002602001604051908101604052809291908181526020016000905b82821015611ccb57838290600052602060002090600a0201604051806101400160405290816000820160009054906101000a900473ffffffffffffffffffffffffffffffffffffffff1673ffffffffffffffffffffffffffffffffffffffff1673ffffffffffffffffffffffffffffffffffffffff1681526020016001820154815260200160028201548152602001600382018054611aa7906137fa565b80601f0160208091040260200160405190810160405280929190818152602001828054611ad3906137fa565b8015611b205780601f10611af557610100808354040283529160200191611b20565b820191906000526020600020905b815481529060010190602001808311611b0357829003601f168201915b505050505081526020016004820154815260200160058201805480602002602001604051908101604052809291908181526020016000905b82821015611c04578382906000526020600020018054611b77906137fa565b80601f0160208091040260200160405190810160405280929190818152602001828054611ba3906137fa565b8015611bf05780601f10611bc557610100808354040283529160200191611bf0565b820191906000526020600020905b815481529060010190602001808311611bd357829003601f168201915b505050505081526020019060010190611b58565b505050508152602001600682018054611c1c906137fa565b80601f0160208091040260200160405190810160405280929190818152602001828054611c48906137fa565b8015611c955780601f10611c6a57610100808354040283529160200191611c95565b820191906000526020600020905b815481529060010190602001808311611c7857829003601f168201915b50505050508152602001600782015481526020016008820154815260200160098201548152505081526020019060010190611a09565b50505050905090565b60056020528060005260406000206000915090508060000160009054906101000a900460ff16908060010154908060060154905083565b6000600560003373ffffffffffffffffffffffffffffffffffffffff1673ffffffffffffffffffffffffffffffffffffffff168152602001908152602001600020905060005b8160040180549050811015611e0f576006600084815260200190815260200160002060010154826004018281548110611d8d57611d8c61379c565b5b90600052602060002001541415611dd9576040517f08c379a0000000000000000000000000000000000000000000000000000000008152600401611dd0906139ef565b60405180910390fd5b80600101905081600401839080600181540180825580915050600190039060005260206000200160009091909190915055611d51565b505050565b611e1c612578565b600560008373ffffffffffffffffffffffffffffffffffffffff1673ffffffffffffffffffffffffffffffffffffffff1681526020019081526020016000206040518060e00160405290816000820160009054906101000a900460ff161515151581526020016001820154815260200160028201805480602002602001604051908101604052809291908181526020016000905b82821015611f5c578382906000526020600020018054611ecf906137fa565b80601f0160208091040260200160405190810160405280929190818152602001828054611efb906137fa565b8015611f485780601f10611f1d57610100808354040283529160200191611f48565b820191906000526020600020905b815481529060010190602001808311611f2b57829003601f168201915b505050505081526020019060010190611eb0565b50505050815260200160038201805480602002602001604051908101604052809291908181526020016000905b8282101561224b57838290600052602060002090600a0201604051806101400160405290816000820160009054906101000a900473ffffffffffffffffffffffffffffffffffffffff1673ffffffffffffffffffffffffffffffffffffffff1673ffffffffffffffffffffffffffffffffffffffff1681526020016001820154815260200160028201548152602001600382018054612027906137fa565b80601f0160208091040260200160405190810160405280929190818152602001828054612053906137fa565b80156120a05780601f10612075576101008083540402835291602001916120a0565b820191906000526020600020905b81548152906001019060200180831161208357829003601f168201915b505050505081526020016004820154815260200160058201805480602002602001604051908101604052809291908181526020016000905b828210156121845783829060005260206000200180546120f7906137fa565b80601f0160208091040260200160405190810160405280929190818152602001828054612123906137fa565b80156121705780601f1061214557610100808354040283529160200191612170565b820191906000526020600020905b81548152906001019060200180831161215357829003601f168201915b5050505050815260200190600101906120d8565b50505050815260200160068201805461219c906137fa565b80601f01602080910402602001604051908101604052809291908181526020018280546121c8906137fa565b80156122155780601f106121ea57610100808354040283529160200191612215565b820191906000526020600020905b8154815290600101906020018083116121f857829003601f168201915b50505050508152602001600782015481526020016008820154815260200160098201548152505081526020019060010190611f89565b505050508152602001600482018054806020026020016040519081016040528092919081815260200182805480156122a257602002820191906000526020600020905b81548152602001906001019080831161228e575b50505050508152602001600582018054806020026020016040519081016040528092919081815260200182805480156122fa57602002820191906000526020600020905b8154815260200190600101908083116122e6575b505050505081526020016006820154815250509050919050565b60066020528060005260406000206000915090508060000160009054906101000a900473ffffffffffffffffffffffffffffffffffffffff1690806001015490806002015490806003018054612369906137fa565b80601f0160208091040260200160405190810160405280929190818152602001828054612395906137fa565b80156123e25780601f106123b7576101008083540402835291602001916123e2565b820191906000526020600020905b8154815290600101906020018083116123c557829003601f168201915b5050505050908060040154908060060180546123fd906137fa565b80601f0160208091040260200160405190810160405280929190818152602001828054612429906137fa565b80156124765780601f1061244b57610100808354040283529160200191612476565b820191906000526020600020905b81548152906001019060200180831161245957829003601f168201915b5050505050908060070154908060080154908060090154905089565b82805461249e906137fa565b90600052602060002090601f0160209004810192826124c05760008555612507565b82601f106124d957805160ff1916838001178555612507565b82800160010185558215612507579182015b828111156125065782518255916020019190600101906124eb565b5b50905061251491906125b7565b5090565b828054828255906000526020600020908101928215612567579160200282015b82811115612566578251829080519060200190612556929190612492565b5091602001919060010190612538565b5b50905061257491906125d4565b5090565b6040518060e001604052806000151581526020016000815260200160608152602001606081526020016060815260200160608152602001600081525090565b5b808211156125d05760008160009055506001016125b8565b5090565b5b808211156125f457600081816125eb91906125f8565b506001016125d5565b5090565b508054612604906137fa565b6000825580601f106126165750612635565b601f01602090049060005260206000209081019061263491906125b7565b5b50565b6000604051905090565b600080fd5b600080fd5b6000819050919050565b61265f8161264c565b811461266a57600080fd5b50565b60008135905061267c81612656565b92915050565b600073ffffffffffffffffffffffffffffffffffffffff82169050919050565b60006126ad82612682565b9050919050565b6126bd816126a2565b81146126c857600080fd5b50565b6000813590506126da816126b4565b92915050565b6000806000606084860312156126f9576126f8612642565b5b60006127078682870161266d565b9350506020612718868287016126cb565b92505060406127298682870161266d565b9150509250925092565b60008115159050919050565b61274881612733565b82525050565b6000602082019050612763600083018461273f565b92915050565b6000819050919050565b61277c81612769565b811461278757600080fd5b50565b60008135905061279981612773565b92915050565b600080fd5b600080fd5b6000601f19601f8301169050919050565b7f4e487b7100000000000000000000000000000000000000000000000000000000600052604160045260246000fd5b6127f2826127a9565b810181811067ffffffffffffffff82111715612811576128106127ba565b5b80604052505050565b6000612824612638565b905061283082826127e9565b919050565b600067ffffffffffffffff8211156128505761284f6127ba565b5b612859826127a9565b9050602081019050919050565b82818337600083830152505050565b600061288861288384612835565b61281a565b9050828152602081018484840111156128a4576128a36127a4565b5b6128af848285612866565b509392505050565b600082601f8301126128cc576128cb61279f565b5b81356128dc848260208601612875565b91505092915050565b600067ffffffffffffffff821115612900576128ff6127ba565b5b602082029050602081019050919050565b600080fd5b6000612929612924846128e5565b61281a565b9050808382526020820190506020840283018581111561294c5761294b612911565b5b835b8181101561299357803567ffffffffffffffff8111156129715761297061279f565b5b80860161297e89826128b7565b8552602085019450505060208101905061294e565b5050509392505050565b600082601f8301126129b2576129b161279f565b5b81356129c2848260208601612916565b91505092915050565b60008060008060008060c087890312156129e8576129e7612642565b5b60006129f689828a0161278a565b965050602087013567ffffffffffffffff811115612a1757612a16612647565b5b612a2389828a016128b7565b9550506040612a3489828a0161278a565b945050606087013567ffffffffffffffff811115612a5557612a54612647565b5b612a6189828a0161299d565b935050608087013567ffffffffffffffff811115612a8257612a81612647565b5b612a8e89828a016128b7565b92505060a0612a9f89828a0161266d565b9150509295509295509295565b600060208284031215612ac257612ac1612642565b5b6000612ad08482850161266d565b91505092915050565b6000612ae482612682565b9050919050565b612af481612ad9565b8114612aff57600080fd5b50565b600081359050612b1181612aeb565b92915050565b60008060408385031215612b2e57612b2d612642565b5b6000612b3c85828601612b02565b9250506020612b4d8582860161266d565b9150509250929050565b600060208284031215612b6d57612b6c612642565b5b6000612b7b84828501612b02565b91505092915050565b600081519050919050565b600082825260208201905092915050565b6000819050602082019050919050565b612bb981612ad9565b82525050565b612bc88161264c565b82525050565b612bd781612769565b82525050565b600081519050919050565b600082825260208201905092915050565b60005b83811015612c17578082015181840152602081019050612bfc565b83811115612c26576000848401525b50505050565b6000612c3782612bdd565b612c418185612be8565b9350612c51818560208601612bf9565b612c5a816127a9565b840191505092915050565b600081519050919050565b600082825260208201905092915050565b6000819050602082019050919050565b6000612c9d8383612c2c565b905092915050565b6000602082019050919050565b6000612cbd82612c65565b612cc78185612c70565b935083602082028501612cd985612c81565b8060005b85811015612d155784840389528151612cf68582612c91565b9450612d0183612ca5565b925060208a01995050600181019050612cdd565b50829750879550505050505092915050565b600061014083016000830151612d406000860182612bb0565b506020830151612d536020860182612bbf565b506040830151612d666040860182612bce565b5060608301518482036060860152612d7e8282612c2c565b9150506080830151612d936080860182612bce565b5060a083015184820360a0860152612dab8282612cb2565b91505060c083015184820360c0860152612dc58282612c2c565b91505060e0830151612dda60e0860182612bbf565b50610100830151612def610100860182612bbf565b50610120830151612e04610120860182612bbf565b508091505092915050565b6000612e1b8383612d27565b905092915050565b6000602082019050919050565b6000612e3b82612b84565b612e458185612b8f565b935083602082028501612e5785612ba0565b8060005b85811015612e935784840389528151612e748582612e0f565b9450612e7f83612e23565b925060208a01995050600181019050612e5b565b50829750879550505050505092915050565b60006020820190508181036000830152612ebf8184612e30565b905092915050565b612ed081612ad9565b82525050565b612edf8161264c565b82525050565b612eee81612769565b82525050565b600082825260208201905092915050565b6000612f1082612bdd565b612f1a8185612ef4565b9350612f2a818560208601612bf9565b612f33816127a9565b840191505092915050565b600061012082019050612f54600083018c612ec7565b612f61602083018b612ed6565b612f6e604083018a612ee5565b8181036060830152612f808189612f05565b9050612f8f6080830188612ee5565b81810360a0830152612fa18187612f05565b9050612fb060c0830186612ed6565b612fbd60e0830185612ed6565b612fcb610100830184612ed6565b9a9950505050505050505050565b60008060408385031215612ff057612fef612642565b5b6000612ffe8582860161266d565b925050602061300f8582860161266d565b9150509250929050565b600060208201905061302e6000830184612ed6565b92915050565b60008060006060848603121561304d5761304c612642565b5b600061305b8682870161266d565b935050602061306c86828701612b02565b925050604061307d8682870161266d565b9150509250925092565b600060608201905061309c600083018661273f565b6130a96020830185612ed6565b6130b66040830184612ed6565b949350505050565b6130c781612733565b82525050565b600082825260208201905092915050565b60006130e982612b84565b6130f381856130cd565b93508360208202850161310585612ba0565b8060005b8581101561314157848403895281516131228582612e0f565b945061312d83612e23565b925060208a01995050600181019050613109565b50829750879550505050505092915050565b600081519050919050565b600082825260208201905092915050565b6000819050602082019050919050565b600061318b8383612bbf565b60208301905092915050565b6000602082019050919050565b60006131af82613153565b6131b9818561315e565b93506131c48361316f565b8060005b838110156131f55781516131dc888261317f565b97506131e783613197565b9250506001810190506131c8565b5085935050505092915050565b600060e08301600083015161321a60008601826130be565b50602083015161322d6020860182612bbf565b50604083015184820360408601526132458282612cb2565b9150506060830151848203606086015261325f82826130de565b9150506080830151848203608086015261327982826131a4565b91505060a083015184820360a086015261329382826131a4565b91505060c08301516132a860c0860182612bbf565b508091505092915050565b600060208201905081810360008301526132cd8184613202565b905092915050565b7f4e487b7100000000000000000000000000000000000000000000000000000000600052601260045260246000fd5b7f4e487b7100000000000000000000000000000000000000000000000000000000600052601160045260246000fd5b600061333e8261264c565b91506133498361264c565b925082613359576133586132d5565b5b828204905092915050565b60006060820190506133796000830186612ec7565b6133866020830185612ec7565b6133936040830184612ed6565b949350505050565b6133a481612733565b81146133af57600080fd5b50565b6000815190506133c18161339b565b92915050565b6000602082840312156133dd576133dc612642565b5b60006133eb848285016133b2565b91505092915050565b60006133ff8261264c565b915061340a8361264c565b9250827fffffffffffffffffffffffffffffffffffffffffffffffffffffffffffffffff0382111561343f5761343e613304565b5b828201905092915050565b6000819050919050565b600061346f61346a61346584612682565b61344a565b612682565b9050919050565b600061348182613454565b9050919050565b600061349382613476565b9050919050565b6134a381613488565b82525050565b60006060820190506134be600083018661349a565b6134cb6020830185612ed6565b6134d86040830184612ed6565b949350505050565b60006134eb8261264c565b91507fffffffffffffffffffffffffffffffffffffffffffffffffffffffffffffffff82141561351e5761351d613304565b5b600182019050919050565b600082825260208201905092915050565b600061354582612c65565b61354f8185613529565b93508360208202850161356185612c81565b8060005b8581101561359d578484038952815161357e8582612c91565b945061358983612ca5565b925060208a01995050600181019050613565565b50829750879550505050505092915050565b600060e0820190506135c4600083018a612ec7565b6135d16020830189612ee5565b81810360408301526135e38188612f05565b90506135f26060830187612ee5565b8181036080830152613604818661353a565b905081810360a08301526136188185612f05565b905061362760c0830184612ed6565b98975050505050505050565b7f596f7520446f206e6f74206861766520656e6f7567682062616c616e6365207460008201527f6f2077697468647261772066726f6d0000000000000000000000000000000000602082015250565b600061368f602f83612ef4565b915061369a82613633565b604082019050919050565b600060208201905081810360008301526136be81613682565b9050919050565b7f496e737566696369656e742042616c616e636500000000000000000000000000600082015250565b60006136fb601383612ef4565b9150613706826136c5565b602082019050919050565b6000602082019050818103600083015261372a816136ee565b9050919050565b600061373c8261264c565b91506137478361264c565b92508282101561375a57613759613304565b5b828203905092915050565b600060608201905061377a6000830186612ed6565b6137876020830185612ec7565b6137946040830184612ed6565b949350505050565b7f4e487b7100000000000000000000000000000000000000000000000000000000600052603260045260246000fd5b7f4e487b7100000000000000000000000000000000000000000000000000000000600052602260045260246000fd5b6000600282049050600182168061381257607f821691505b60208210811415613826576138256137cb565b5b50919050565b7f596f7520446f204e6f74206861766520616e206163746976652073756273637260008201527f697074696f6e20746f20706c617920616c62756d2c20506c656173652053756260208201527f7363726962650000000000000000000000000000000000000000000000000000604082015250565b60006138ae604683612ef4565b91506138b98261382c565b606082019050919050565b600060208201905081810360008301526138dd816138a1565b9050919050565b600060a0820190506138f96000830188612ed6565b6139066020830187612ec7565b6139136040830186612ee5565b6139206060830185612ed6565b61392d6080830184612ed6565b9695505050505050565b7f416c62756d20486173206265656e20526174656420616c726561647900000000600082015250565b600061396d601c83612ef4565b915061397882613937565b602082019050919050565b6000602082019050818103600083015261399c81613960565b9050919050565b7f416c62756d20486173206265656e206c696b656420616c726561647900000000600082015250565b60006139d9601c83612ef4565b91506139e4826139a3565b602082019050919050565b60006020820190508181036000830152613a08816139cc565b905091905056fea2646970667358221220a2b51b58c565ce8dc1de8ca3fb2b39e65ffdc160795183c105647f3ba891f59264736f6c63430008090033",
  "linkReferences": {},
  "deployedLinkReferences": {}
}