{
  "_format": "hh-sol-artifact-1",
  "contractName": "MusicStore",
  "sourceName": "contracts/MusicStore.sol",
  "abi": [
    {
      "anonymous": false,
      "inputs": [
        {
          "indexed": false,
          "internalType": "uint256",
          "name": "id",
          "type": "uint256"
        },
        {
          "indexed": false,
          "internalType": "address",
          "name": "Author",
          "type": "address"
        },
        {
          "indexed": false,
          "internalType": "string",
          "name": "albumTitle",
          "type": "string"
        },
        {
          "indexed": false,
          "internalType": "string",
          "name": "category",
          "type": "string"
        },
        {
          "indexed": false,
          "internalType": "uint256",
          "name": "releaseDate",
          "type": "uint256"
        },
        {
          "indexed": false,
          "internalType": "uint256",
          "name": "noOfStreams",
          "type": "uint256"
        }
      ],
      "name": "Played",
      "type": "event"
    },
    {
      "anonymous": false,
      "inputs": [
        {
          "indexed": false,
          "internalType": "address",
          "name": "subscriber",
          "type": "address"
        },
        {
          "indexed": false,
          "internalType": "uint256",
          "name": "price",
          "type": "uint256"
        },
        {
          "indexed": false,
          "internalType": "uint256",
          "name": "plan",
          "type": "uint256"
        }
      ],
      "name": "Subscribed",
      "type": "event"
    },
    {
      "anonymous": false,
      "inputs": [
        {
          "indexed": false,
          "internalType": "address",
          "name": "author",
          "type": "address"
        },
        {
          "indexed": false,
          "internalType": "string",
          "name": "title",
          "type": "string"
        },
        {
          "indexed": false,
          "internalType": "string",
          "name": "name",
          "type": "string"
        },
        {
          "indexed": false,
          "internalType": "string",
          "name": "category",
          "type": "string"
        },
        {
          "indexed": false,
          "internalType": "string",
          "name": "genre",
          "type": "string"
        },
        {
          "indexed": false,
          "internalType": "string[]",
          "name": "tracks",
          "type": "string[]"
        },
        {
          "indexed": false,
          "internalType": "string",
          "name": "coverImage",
          "type": "string"
        },
        {
          "indexed": false,
          "internalType": "uint256",
          "name": "releaseDate",
          "type": "uint256"
        }
      ],
      "name": "Uploaded",
      "type": "event"
    },
    {
      "anonymous": false,
      "inputs": [
        {
          "indexed": false,
          "internalType": "uint256",
          "name": "amount",
          "type": "uint256"
        },
        {
          "indexed": false,
          "internalType": "address",
          "name": "user",
          "type": "address"
        },
        {
          "indexed": false,
          "internalType": "uint256",
          "name": "balance",
          "type": "uint256"
        }
      ],
      "name": "Withdrawn",
      "type": "event"
    },
    {
      "inputs": [
        {
          "internalType": "uint256",
          "name": "",
          "type": "uint256"
        }
      ],
      "name": "albums",
      "outputs": [
        {
          "internalType": "address",
          "name": "author",
          "type": "address"
        },
        {
          "internalType": "uint256",
          "name": "id",
          "type": "uint256"
        },
        {
          "internalType": "string",
          "name": "title",
          "type": "string"
        },
        {
          "internalType": "string",
          "name": "name",
          "type": "string"
        },
        {
          "internalType": "string",
          "name": "category",
          "type": "string"
        },
        {
          "internalType": "string",
          "name": "genre",
          "type": "string"
        },
        {
          "internalType": "string",
          "name": "coverImage",
          "type": "string"
        },
        {
          "internalType": "uint256",
          "name": "releaseDate",
          "type": "uint256"
        },
        {
          "internalType": "uint256",
          "name": "ratings",
          "type": "uint256"
        },
        {
          "internalType": "uint256",
          "name": "noOfStreams",
          "type": "uint256"
        }
      ],
      "stateMutability": "view",
      "type": "function"
    },
    {
      "inputs": [
        {
          "internalType": "uint256",
          "name": "",
          "type": "uint256"
        }
      ],
      "name": "albumsList",
      "outputs": [
        {
          "internalType": "address",
          "name": "author",
          "type": "address"
        },
        {
          "internalType": "uint256",
          "name": "id",
          "type": "uint256"
        },
        {
          "internalType": "string",
          "name": "title",
          "type": "string"
        },
        {
          "internalType": "string",
          "name": "name",
          "type": "string"
        },
        {
          "internalType": "string",
          "name": "category",
          "type": "string"
        },
        {
          "internalType": "string",
          "name": "genre",
          "type": "string"
        },
        {
          "internalType": "string",
          "name": "coverImage",
          "type": "string"
        },
        {
          "internalType": "uint256",
          "name": "releaseDate",
          "type": "uint256"
        },
        {
          "internalType": "uint256",
          "name": "ratings",
          "type": "uint256"
        },
        {
          "internalType": "uint256",
          "name": "noOfStreams",
          "type": "uint256"
        }
      ],
      "stateMutability": "view",
      "type": "function"
    },
    {
      "inputs": [],
      "name": "getAllAlbums",
      "outputs": [
        {
          "components": [
            {
              "internalType": "address",
              "name": "author",
              "type": "address"
            },
            {
              "internalType": "uint256",
              "name": "id",
              "type": "uint256"
            },
            {
              "internalType": "string",
              "name": "title",
              "type": "string"
            },
            {
              "internalType": "string",
              "name": "name",
              "type": "string"
            },
            {
              "internalType": "string",
              "name": "category",
              "type": "string"
            },
            {
              "internalType": "string",
              "name": "genre",
              "type": "string"
            },
            {
              "internalType": "string[]",
              "name": "tracks",
              "type": "string[]"
            },
            {
              "internalType": "string",
              "name": "coverImage",
              "type": "string"
            },
            {
              "internalType": "uint256",
              "name": "releaseDate",
              "type": "uint256"
            },
            {
              "internalType": "uint256",
              "name": "ratings",
              "type": "uint256"
            },
            {
              "internalType": "uint256",
              "name": "noOfStreams",
              "type": "uint256"
            }
          ],
          "internalType": "struct MusicStore.Collection[]",
          "name": "",
          "type": "tuple[]"
        }
      ],
      "stateMutability": "view",
      "type": "function"
    },
    {
      "inputs": [
        {
          "internalType": "address",
          "name": "_user",
          "type": "address"
        }
      ],
      "name": "getUserDetails",
      "outputs": [
        {
          "components": [
            {
              "internalType": "bool",
              "name": "isSubscribed",
              "type": "bool"
            },
            {
              "internalType": "uint256",
              "name": "playableAlbums",
              "type": "uint256"
            },
            {
              "components": [
                {
                  "internalType": "address",
                  "name": "author",
                  "type": "address"
                },
                {
                  "internalType": "uint256",
                  "name": "id",
                  "type": "uint256"
                },
                {
                  "internalType": "string",
                  "name": "title",
                  "type": "string"
                },
                {
                  "internalType": "string",
                  "name": "name",
                  "type": "string"
                },
                {
                  "internalType": "string",
                  "name": "category",
                  "type": "string"
                },
                {
                  "internalType": "string",
                  "name": "genre",
                  "type": "string"
                },
                {
                  "internalType": "string[]",
                  "name": "tracks",
                  "type": "string[]"
                },
                {
                  "internalType": "string",
                  "name": "coverImage",
                  "type": "string"
                },
                {
                  "internalType": "uint256",
                  "name": "releaseDate",
                  "type": "uint256"
                },
                {
                  "internalType": "uint256",
                  "name": "ratings",
                  "type": "uint256"
                },
                {
                  "internalType": "uint256",
                  "name": "noOfStreams",
                  "type": "uint256"
                }
              ],
              "internalType": "struct MusicStore.Collection[]",
              "name": "uploadedAlbums",
              "type": "tuple[]"
            },
            {
              "internalType": "uint256[]",
              "name": "likedAlbums",
              "type": "uint256[]"
            },
            {
              "internalType": "uint256[]",
              "name": "ratedAlbums",
              "type": "uint256[]"
            },
            {
              "internalType": "uint256",
              "name": "amountEarned",
              "type": "uint256"
            }
          ],
          "internalType": "struct MusicStore.User",
          "name": "",
          "type": "tuple"
        }
      ],
      "stateMutability": "view",
      "type": "function"
    },
    {
      "inputs": [
        {
          "internalType": "address",
          "name": "_user",
          "type": "address"
        }
      ],
      "name": "getUserUploads",
      "outputs": [
        {
          "components": [
            {
              "internalType": "address",
              "name": "author",
              "type": "address"
            },
            {
              "internalType": "uint256",
              "name": "id",
              "type": "uint256"
            },
            {
              "internalType": "string",
              "name": "title",
              "type": "string"
            },
            {
              "internalType": "string",
              "name": "name",
              "type": "string"
            },
            {
              "internalType": "string",
              "name": "category",
              "type": "string"
            },
            {
              "internalType": "string",
              "name": "genre",
              "type": "string"
            },
            {
              "internalType": "string[]",
              "name": "tracks",
              "type": "string[]"
            },
            {
              "internalType": "string",
              "name": "coverImage",
              "type": "string"
            },
            {
              "internalType": "uint256",
              "name": "releaseDate",
              "type": "uint256"
            },
            {
              "internalType": "uint256",
              "name": "ratings",
              "type": "uint256"
            },
            {
              "internalType": "uint256",
              "name": "noOfStreams",
              "type": "uint256"
            }
          ],
          "internalType": "struct MusicStore.Collection[]",
          "name": "",
          "type": "tuple[]"
        }
      ],
      "stateMutability": "view",
      "type": "function"
    },
    {
      "inputs": [
        {
          "internalType": "address",
          "name": "_user",
          "type": "address"
        },
        {
          "internalType": "uint256",
          "name": "_albumId",
          "type": "uint256"
        }
      ],
      "name": "isLiked",
      "outputs": [
        {
          "internalType": "bool",
          "name": "liked",
          "type": "bool"
        }
      ],
      "stateMutability": "view",
      "type": "function"
    },
    {
      "inputs": [
        {
          "internalType": "uint256",
          "name": "_albumId",
          "type": "uint256"
        }
      ],
      "name": "likeAlbum",
      "outputs": [],
      "stateMutability": "nonpayable",
      "type": "function"
    },
    {
      "inputs": [
        {
          "internalType": "uint256",
          "name": "_id",
          "type": "uint256"
        }
      ],
      "name": "play",
      "outputs": [
        {
          "internalType": "bool",
          "name": "success",
          "type": "bool"
        }
      ],
      "stateMutability": "nonpayable",
      "type": "function"
    },
    {
      "inputs": [
        {
          "internalType": "uint256",
          "name": "_albumId",
          "type": "uint256"
        },
        {
          "internalType": "address",
          "name": "_user",
          "type": "address"
        },
        {
          "internalType": "uint256",
          "name": "_rating",
          "type": "uint256"
        }
      ],
      "name": "rateAlbum",
      "outputs": [],
      "stateMutability": "nonpayable",
      "type": "function"
    },
    {
      "inputs": [
        {
          "internalType": "uint256",
          "name": "",
          "type": "uint256"
        },
        {
          "internalType": "uint256",
          "name": "",
          "type": "uint256"
        }
      ],
      "name": "ratings",
      "outputs": [
        {
          "internalType": "uint256",
          "name": "",
          "type": "uint256"
        }
      ],
      "stateMutability": "view",
      "type": "function"
    },
    {
      "inputs": [
        {
          "internalType": "uint256",
          "name": "plan",
          "type": "uint256"
        },
        {
          "internalType": "address",
          "name": "_user",
          "type": "address"
        },
        {
          "internalType": "uint256",
          "name": "price",
          "type": "uint256"
        }
      ],
      "name": "subscribe",
      "outputs": [
        {
          "internalType": "bool",
          "name": "success",
          "type": "bool"
        }
      ],
      "stateMutability": "nonpayable",
      "type": "function"
    },
    {
      "inputs": [
        {
          "internalType": "string",
          "name": "_title",
          "type": "string"
        },
        {
          "internalType": "string",
          "name": "_name",
          "type": "string"
        },
        {
          "internalType": "string",
          "name": "_category",
          "type": "string"
        },
        {
          "internalType": "string",
          "name": "_genre",
          "type": "string"
        },
        {
          "internalType": "string[]",
          "name": "_tracks",
          "type": "string[]"
        },
        {
          "internalType": "string",
          "name": "_coverImage",
          "type": "string"
        },
        {
          "internalType": "uint256",
          "name": "_releaseDate",
          "type": "uint256"
        }
      ],
      "name": "uploadAlbum",
      "outputs": [],
      "stateMutability": "payable",
      "type": "function"
    },
    {
      "inputs": [
        {
          "internalType": "address",
          "name": "",
          "type": "address"
        }
      ],
      "name": "users",
      "outputs": [
        {
          "internalType": "bool",
          "name": "isSubscribed",
          "type": "bool"
        },
        {
          "internalType": "uint256",
          "name": "playableAlbums",
          "type": "uint256"
        },
        {
          "internalType": "uint256",
          "name": "amountEarned",
          "type": "uint256"
        }
      ],
      "stateMutability": "view",
      "type": "function"
    },
    {
      "inputs": [
        {
          "internalType": "uint256",
          "name": "_amount",
          "type": "uint256"
        }
      ],
      "name": "withdraw",
      "outputs": [],
      "stateMutability": "payable",
      "type": "function"
    }
  ],
  "bytecode": "0x60806040526000600255600060035534801561001a57600080fd5b50613e838061002a6000396000f3fe6080604052600436106100dd5760003560e01c806369f63db91161007f578063cc3d967b11610059578063cc3d967b146102dc578063dd6b471b14610319578063e5f5da2114610344578063ea5df0591461038a576100dd565b806369f63db9146102585780638b7b223b14610281578063a87430ba1461029d576100dd565b8063346d971d116100bb578063346d971d14610164578063412bd348146101a1578063482ef360146101de5780636898f82b1461021b576100dd565b8063021683e1146100e2578063291ab4da1461011f5780632e1a7d4d14610148575b600080fd5b3480156100ee57600080fd5b5061010960048036038101906101049190612b80565b6103d0565b6040516101169190612bee565b60405180910390f35b34801561012b57600080fd5b5061014660048036038101906101419190612c09565b61059f565b005b610162600480360381019061015d9190612c09565b6106b0565b005b34801561017057600080fd5b5061018b60048036038101906101869190612c36565b610892565b6040516101989190612bee565b60405180910390f35b3480156101ad57600080fd5b506101c860048036038101906101c39190612c76565b610951565b6040516101d59190612ff0565b60405180910390f35b3480156101ea57600080fd5b5061020560048036038101906102009190613012565b610e24565b6040516102129190613061565b60405180910390f35b34801561022757600080fd5b50610242600480360381019061023d9190612c09565b610e55565b60405161024f9190612bee565b60405180910390f35b34801561026457600080fd5b5061027f600480360381019061027a9190612b80565b611177565b005b61029b60048036038101906102969190613297565b61137a565b005b3480156102a957600080fd5b506102c460048036038101906102bf9190612c76565b611860565b6040516102d3939291906133e1565b60405180910390f35b3480156102e857600080fd5b5061030360048036038101906102fe9190612c76565b611897565b60405161031091906135f3565b60405180910390f35b34801561032557600080fd5b5061032e611e60565b60405161033b9190612ff0565b60405180910390f35b34801561035057600080fd5b5061036b60048036038101906103669190612c09565b6122f1565b6040516103819a9998979695949392919061366e565b60405180910390f35b34801561039657600080fd5b506103b160048036038101906103ac9190612c09565b61261d565b6040516103c79a9998979695949392919061366e565b60405180910390f35b60006001841415610436576032600560008573ffffffffffffffffffffffffffffffffffffffff1673ffffffffffffffffffffffffffffffffffffffff168152602001908152602001600020600101600082825461042e919061375c565b925050819055505b600284141561049a576064600560008573ffffffffffffffffffffffffffffffffffffffff1673ffffffffffffffffffffffffffffffffffffffff1681526020019081526020016000206001016000828254610492919061375c565b925050819055505b60038414156104fe5760c8600560008573ffffffffffffffffffffffffffffffffffffffff1673ffffffffffffffffffffffffffffffffffffffff16815260200190815260200160002060010160008282546104f6919061375c565b925050819055505b6001600560008573ffffffffffffffffffffffffffffffffffffffff1673ffffffffffffffffffffffffffffffffffffffff16815260200190815260200160002060000160006101000a81548160ff0219169083151502179055507ff94991dcbea6e8ac439cbc93bd9c62a4d39f04e0ad656df9a703f13552c2787f83838660405161058c939291906137b2565b60405180910390a1600190509392505050565b6000600560003373ffffffffffffffffffffffffffffffffffffffff1673ffffffffffffffffffffffffffffffffffffffff168152602001908152602001600020905060005b81600301805490508110156106ab576006600084815260200190815260200160002060010154826003018281548110610621576106206137e9565b5b9060005260206000200154141561066d576040517f08c379a000000000000000000000000000000000000000000000000000000000815260040161066490613864565b60405180910390fd5b8160030183908060018154018082558091505060019003906000526020600020016000909190919091505580806106a390613884565b9150506105e5565b505050565b6000600560003373ffffffffffffffffffffffffffffffffffffffff1673ffffffffffffffffffffffffffffffffffffffff1681526020019081526020016000206005015411610735576040517f08c379a000000000000000000000000000000000000000000000000000000000815260040161072c9061393f565b60405180910390fd5b80600560003373ffffffffffffffffffffffffffffffffffffffff1673ffffffffffffffffffffffffffffffffffffffff16815260200190815260200160002060050154116107b9576040517f08c379a00000000000000000000000000000000000000000000000000000000081526004016107b0906139ab565b60405180910390fd5b80600560003373ffffffffffffffffffffffffffffffffffffffff1673ffffffffffffffffffffffffffffffffffffffff168152602001908152602001600020600501600082825461080b91906139cb565b925050819055507fcf7d23a3cbe4e8b36ff82fd1b05b1b17373dc7804b4ebbd6e2356716ef2023728133600560003373ffffffffffffffffffffffffffffffffffffffff1673ffffffffffffffffffffffffffffffffffffffff16815260200190815260200160002060050154604051610887939291906139ff565b60405180910390a150565b600080600560008573ffffffffffffffffffffffffffffffffffffffff1673ffffffffffffffffffffffffffffffffffffffff168152602001908152602001600020905060005b8160030180549050811015610944576006600085815260200190815260200160002060010154826003018281548110610915576109146137e9565b5b906000526020600020015414156109315760019250505061094b565b808061093c90613884565b9150506108d9565b5060009150505b92915050565b6060600560008373ffffffffffffffffffffffffffffffffffffffff1673ffffffffffffffffffffffffffffffffffffffff168152602001908152602001600020600201805480602002602001604051908101604052809291908181526020016000905b82821015610e1957838290600052602060002090600b0201604051806101600160405290816000820160009054906101000a900473ffffffffffffffffffffffffffffffffffffffff1673ffffffffffffffffffffffffffffffffffffffff1673ffffffffffffffffffffffffffffffffffffffff16815260200160018201548152602001600282018054610a4990613a65565b80601f0160208091040260200160405190810160405280929190818152602001828054610a7590613a65565b8015610ac25780601f10610a9757610100808354040283529160200191610ac2565b820191906000526020600020905b815481529060010190602001808311610aa557829003601f168201915b50505050508152602001600382018054610adb90613a65565b80601f0160208091040260200160405190810160405280929190818152602001828054610b0790613a65565b8015610b545780601f10610b2957610100808354040283529160200191610b54565b820191906000526020600020905b815481529060010190602001808311610b3757829003601f168201915b50505050508152602001600482018054610b6d90613a65565b80601f0160208091040260200160405190810160405280929190818152602001828054610b9990613a65565b8015610be65780601f10610bbb57610100808354040283529160200191610be6565b820191906000526020600020905b815481529060010190602001808311610bc957829003601f168201915b50505050508152602001600582018054610bff90613a65565b80601f0160208091040260200160405190810160405280929190818152602001828054610c2b90613a65565b8015610c785780601f10610c4d57610100808354040283529160200191610c78565b820191906000526020600020905b815481529060010190602001808311610c5b57829003601f168201915b5050505050815260200160068201805480602002602001604051908101604052809291908181526020016000905b82821015610d52578382906000526020600020018054610cc590613a65565b80601f0160208091040260200160405190810160405280929190818152602001828054610cf190613a65565b8015610d3e5780601f10610d1357610100808354040283529160200191610d3e565b820191906000526020600020905b815481529060010190602001808311610d2157829003601f168201915b505050505081526020019060010190610ca6565b505050508152602001600782018054610d6a90613a65565b80601f0160208091040260200160405190810160405280929190818152602001828054610d9690613a65565b8015610de35780601f10610db857610100808354040283529160200191610de3565b820191906000526020600020905b815481529060010190602001808311610dc657829003601f168201915b505050505081526020016008820154815260200160098201548152602001600a82015481525050815260200190600101906109b5565b505050509050919050565b60076020528160005260406000208181548110610e4057600080fd5b90600052602060002001600091509150505481565b600080600560003373ffffffffffffffffffffffffffffffffffffffff1673ffffffffffffffffffffffffffffffffffffffff1681526020019081526020016000206001015411610edb576040517f08c379a0000000000000000000000000000000000000000000000000000000008152600401610ed290613b2f565b60405180910390fd5b600160066000848152602001908152602001600020600a016000828254610f02919061375c565b9250508190555067016345785d8a0000600560006006600086815260200190815260200160002060000160009054906101000a900473ffffffffffffffffffffffffffffffffffffffff1673ffffffffffffffffffffffffffffffffffffffff1673ffffffffffffffffffffffffffffffffffffffff1681526020019081526020016000206005016000828254610f99919061375c565b925050819055507f207bec8096cbbbcb0691cd428d807ded269a93baa7cd1e6ceb7fc2fcab7751e9826006600085815260200190815260200160002060000160009054906101000a900473ffffffffffffffffffffffffffffffffffffffff166006600086815260200190815260200160002060020160066000878152602001908152602001600020600401600660008881526020019081526020016000206008015460066000898152602001908152602001600020600a015460405161106596959493929190613be4565b60405180910390a16001600560003373ffffffffffffffffffffffffffffffffffffffff1673ffffffffffffffffffffffffffffffffffffffff16815260200190815260200160002060010160008282546110c091906139cb565b925050819055506000600560003373ffffffffffffffffffffffffffffffffffffffff1673ffffffffffffffffffffffffffffffffffffffff16815260200190815260200160002060010154141561116e576000600560003373ffffffffffffffffffffffffffffffffffffffff1673ffffffffffffffffffffffffffffffffffffffff16815260200190815260200160002060000160006101000a81548160ff0219169083151502179055505b60019050919050565b6000600560008473ffffffffffffffffffffffffffffffffffffffff1673ffffffffffffffffffffffffffffffffffffffff1681526020019081526020016000209050600060066000868152602001908152602001600020905060005b82600401805490508110156113725760066000878152602001908152602001600020600101548360040182815481106112105761120f6137e9565b5b9060005260206000200154141561125c576040517f08c379a000000000000000000000000000000000000000000000000000000000815260040161125390613c9f565b60405180910390fd5b82600401869080600181540180825580915050600190039060005260206000200160009091909190915055600760008781526020019081526020016000208490806001815401808255809150506001900390600052602060002001600090919091909150556000805b600760008981526020019081526020016000208054905081101561133357600760008981526020019081526020016000208181548110611308576113076137e9565b5b90600052602060002001548261131e919061375c565b9150808061132b90613884565b9150506112c5565b506007600088815260200190815260200160002080549050816113569190613cee565b836009018190555050808061136a90613884565b9150506111d4565b505050505050565b6001600081548092919061138d90613884565b919050555060006040518061016001604052803373ffffffffffffffffffffffffffffffffffffffff168152602001600154815260200189815260200188815260200187815260200186815260200185815260200184815260200183815260200160008152602001600081525090508060066000600154815260200190815260200160002060008201518160000160006101000a81548173ffffffffffffffffffffffffffffffffffffffff021916908373ffffffffffffffffffffffffffffffffffffffff16021790555060208201518160010155604082015181600201908051906020019061147f929190612939565b50606082015181600301908051906020019061149c929190612939565b5060808201518160040190805190602001906114b9929190612939565b5060a08201518160050190805190602001906114d6929190612939565b5060c08201518160060190805190602001906114f39291906129bf565b5060e0820151816007019080519060200190611510929190612939565b506101008201518160080155610120820151816009015561014082015181600a015590505060088190806001815401808255809150506001900390600052602060002090600b020160009091909190915060008201518160000160006101000a81548173ffffffffffffffffffffffffffffffffffffffff021916908373ffffffffffffffffffffffffffffffffffffffff1602179055506020820151816001015560408201518160020190805190602001906115ce929190612939565b5060608201518160030190805190602001906115eb929190612939565b506080820151816004019080519060200190611608929190612939565b5060a0820151816005019080519060200190611625929190612939565b5060c08201518160060190805190602001906116429291906129bf565b5060e082015181600701908051906020019061165f929190612939565b506101008201518160080155610120820151816009015561014082015181600a01555050600560003373ffffffffffffffffffffffffffffffffffffffff1673ffffffffffffffffffffffffffffffffffffffff1681526020019081526020016000206002018190806001815401808255809150506001900390600052602060002090600b020160009091909190915060008201518160000160006101000a81548173ffffffffffffffffffffffffffffffffffffffff021916908373ffffffffffffffffffffffffffffffffffffffff16021790555060208201518160010155604082015181600201908051906020019061175c929190612939565b506060820151816003019080519060200190611779929190612939565b506080820151816004019080519060200190611796929190612939565b5060a08201518160050190805190602001906117b3929190612939565b5060c08201518160060190805190602001906117d09291906129bf565b5060e08201518160070190805190602001906117ed929190612939565b506101008201518160080155610120820151816009015561014082015181600a015550507f2021ccbb383bf4ba9f7c7597de47b1c1af34a08caa426d99381c57440b64c180338989898989898960405161184e989796959493929190613da5565b60405180910390a15050505050505050565b60056020528060005260406000206000915090508060000160009054906101000a900460ff16908060010154908060050154905083565b61189f612a1f565b600560008373ffffffffffffffffffffffffffffffffffffffff1673ffffffffffffffffffffffffffffffffffffffff1681526020019081526020016000206040518060c00160405290816000820160009054906101000a900460ff161515151581526020016001820154815260200160028201805480602002602001604051908101604052809291908181526020016000905b82821015611d9757838290600052602060002090600b0201604051806101600160405290816000820160009054906101000a900473ffffffffffffffffffffffffffffffffffffffff1673ffffffffffffffffffffffffffffffffffffffff1673ffffffffffffffffffffffffffffffffffffffff168152602001600182015481526020016002820180546119c790613a65565b80601f01602080910402602001604051908101604052809291908181526020018280546119f390613a65565b8015611a405780601f10611a1557610100808354040283529160200191611a40565b820191906000526020600020905b815481529060010190602001808311611a2357829003601f168201915b50505050508152602001600382018054611a5990613a65565b80601f0160208091040260200160405190810160405280929190818152602001828054611a8590613a65565b8015611ad25780601f10611aa757610100808354040283529160200191611ad2565b820191906000526020600020905b815481529060010190602001808311611ab557829003601f168201915b50505050508152602001600482018054611aeb90613a65565b80601f0160208091040260200160405190810160405280929190818152602001828054611b1790613a65565b8015611b645780601f10611b3957610100808354040283529160200191611b64565b820191906000526020600020905b815481529060010190602001808311611b4757829003601f168201915b50505050508152602001600582018054611b7d90613a65565b80601f0160208091040260200160405190810160405280929190818152602001828054611ba990613a65565b8015611bf65780601f10611bcb57610100808354040283529160200191611bf6565b820191906000526020600020905b815481529060010190602001808311611bd957829003601f168201915b5050505050815260200160068201805480602002602001604051908101604052809291908181526020016000905b82821015611cd0578382906000526020600020018054611c4390613a65565b80601f0160208091040260200160405190810160405280929190818152602001828054611c6f90613a65565b8015611cbc5780601f10611c9157610100808354040283529160200191611cbc565b820191906000526020600020905b815481529060010190602001808311611c9f57829003601f168201915b505050505081526020019060010190611c24565b505050508152602001600782018054611ce890613a65565b80601f0160208091040260200160405190810160405280929190818152602001828054611d1490613a65565b8015611d615780601f10611d3657610100808354040283529160200191611d61565b820191906000526020600020905b815481529060010190602001808311611d4457829003601f168201915b505050505081526020016008820154815260200160098201548152602001600a8201548152505081526020019060010190611933565b50505050815260200160038201805480602002602001604051908101604052809291908181526020018280548015611dee57602002820191906000526020600020905b815481526020019060010190808311611dda575b5050505050815260200160048201805480602002602001604051908101604052809291908181526020018280548015611e4657602002820191906000526020600020905b815481526020019060010190808311611e32575b505050505081526020016005820154815250509050919050565b60606008805480602002602001604051908101604052809291908181526020016000905b828210156122e857838290600052602060002090600b0201604051806101600160405290816000820160009054906101000a900473ffffffffffffffffffffffffffffffffffffffff1673ffffffffffffffffffffffffffffffffffffffff1673ffffffffffffffffffffffffffffffffffffffff16815260200160018201548152602001600282018054611f1890613a65565b80601f0160208091040260200160405190810160405280929190818152602001828054611f4490613a65565b8015611f915780601f10611f6657610100808354040283529160200191611f91565b820191906000526020600020905b815481529060010190602001808311611f7457829003601f168201915b50505050508152602001600382018054611faa90613a65565b80601f0160208091040260200160405190810160405280929190818152602001828054611fd690613a65565b80156120235780601f10611ff857610100808354040283529160200191612023565b820191906000526020600020905b81548152906001019060200180831161200657829003601f168201915b5050505050815260200160048201805461203c90613a65565b80601f016020809104026020016040519081016040528092919081815260200182805461206890613a65565b80156120b55780601f1061208a576101008083540402835291602001916120b5565b820191906000526020600020905b81548152906001019060200180831161209857829003601f168201915b505050505081526020016005820180546120ce90613a65565b80601f01602080910402602001604051908101604052809291908181526020018280546120fa90613a65565b80156121475780601f1061211c57610100808354040283529160200191612147565b820191906000526020600020905b81548152906001019060200180831161212a57829003601f168201915b5050505050815260200160068201805480602002602001604051908101604052809291908181526020016000905b8282101561222157838290600052602060002001805461219490613a65565b80601f01602080910402602001604051908101604052809291908181526020018280546121c090613a65565b801561220d5780601f106121e25761010080835404028352916020019161220d565b820191906000526020600020905b8154815290600101906020018083116121f057829003601f168201915b505050505081526020019060010190612175565b50505050815260200160078201805461223990613a65565b80601f016020809104026020016040519081016040528092919081815260200182805461226590613a65565b80156122b25780601f10612287576101008083540402835291602001916122b2565b820191906000526020600020905b81548152906001019060200180831161229557829003601f168201915b505050505081526020016008820154815260200160098201548152602001600a8201548152505081526020019060010190611e84565b50505050905090565b6008818154811061230157600080fd5b90600052602060002090600b02016000915090508060000160009054906101000a900473ffffffffffffffffffffffffffffffffffffffff169080600101549080600201805461235090613a65565b80601f016020809104026020016040519081016040528092919081815260200182805461237c90613a65565b80156123c95780601f1061239e576101008083540402835291602001916123c9565b820191906000526020600020905b8154815290600101906020018083116123ac57829003601f168201915b5050505050908060030180546123de90613a65565b80601f016020809104026020016040519081016040528092919081815260200182805461240a90613a65565b80156124575780601f1061242c57610100808354040283529160200191612457565b820191906000526020600020905b81548152906001019060200180831161243a57829003601f168201915b50505050509080600401805461246c90613a65565b80601f016020809104026020016040519081016040528092919081815260200182805461249890613a65565b80156124e55780601f106124ba576101008083540402835291602001916124e5565b820191906000526020600020905b8154815290600101906020018083116124c857829003601f168201915b5050505050908060050180546124fa90613a65565b80601f016020809104026020016040519081016040528092919081815260200182805461252690613a65565b80156125735780601f1061254857610100808354040283529160200191612573565b820191906000526020600020905b81548152906001019060200180831161255657829003601f168201915b50505050509080600701805461258890613a65565b80601f01602080910402602001604051908101604052809291908181526020018280546125b490613a65565b80156126015780601f106125d657610100808354040283529160200191612601565b820191906000526020600020905b8154815290600101906020018083116125e457829003601f168201915b50505050509080600801549080600901549080600a015490508a565b60066020528060005260406000206000915090508060000160009054906101000a900473ffffffffffffffffffffffffffffffffffffffff169080600101549080600201805461266c90613a65565b80601f016020809104026020016040519081016040528092919081815260200182805461269890613a65565b80156126e55780601f106126ba576101008083540402835291602001916126e5565b820191906000526020600020905b8154815290600101906020018083116126c857829003601f168201915b5050505050908060030180546126fa90613a65565b80601f016020809104026020016040519081016040528092919081815260200182805461272690613a65565b80156127735780601f1061274857610100808354040283529160200191612773565b820191906000526020600020905b81548152906001019060200180831161275657829003601f168201915b50505050509080600401805461278890613a65565b80601f01602080910402602001604051908101604052809291908181526020018280546127b490613a65565b80156128015780601f106127d657610100808354040283529160200191612801565b820191906000526020600020905b8154815290600101906020018083116127e457829003601f168201915b50505050509080600501805461281690613a65565b80601f016020809104026020016040519081016040528092919081815260200182805461284290613a65565b801561288f5780601f106128645761010080835404028352916020019161288f565b820191906000526020600020905b81548152906001019060200180831161287257829003601f168201915b5050505050908060070180546128a490613a65565b80601f01602080910402602001604051908101604052809291908181526020018280546128d090613a65565b801561291d5780601f106128f25761010080835404028352916020019161291d565b820191906000526020600020905b81548152906001019060200180831161290057829003601f168201915b50505050509080600801549080600901549080600a015490508a565b82805461294590613a65565b90600052602060002090601f01602090048101928261296757600085556129ae565b82601f1061298057805160ff19168380011785556129ae565b828001600101855582156129ae579182015b828111156129ad578251825591602001919060010190612992565b5b5090506129bb9190612a57565b5090565b828054828255906000526020600020908101928215612a0e579160200282015b82811115612a0d5782518290805190602001906129fd929190612939565b50916020019190600101906129df565b5b509050612a1b9190612a74565b5090565b6040518060c0016040528060001515815260200160008152602001606081526020016060815260200160608152602001600081525090565b5b80821115612a70576000816000905550600101612a58565b5090565b5b80821115612a945760008181612a8b9190612a98565b50600101612a75565b5090565b508054612aa490613a65565b6000825580601f10612ab65750612ad5565b601f016020900490600052602060002090810190612ad49190612a57565b5b50565b6000604051905090565b600080fd5b600080fd5b6000819050919050565b612aff81612aec565b8114612b0a57600080fd5b50565b600081359050612b1c81612af6565b92915050565b600073ffffffffffffffffffffffffffffffffffffffff82169050919050565b6000612b4d82612b22565b9050919050565b612b5d81612b42565b8114612b6857600080fd5b50565b600081359050612b7a81612b54565b92915050565b600080600060608486031215612b9957612b98612ae2565b5b6000612ba786828701612b0d565b9350506020612bb886828701612b6b565b9250506040612bc986828701612b0d565b9150509250925092565b60008115159050919050565b612be881612bd3565b82525050565b6000602082019050612c036000830184612bdf565b92915050565b600060208284031215612c1f57612c1e612ae2565b5b6000612c2d84828501612b0d565b91505092915050565b60008060408385031215612c4d57612c4c612ae2565b5b6000612c5b85828601612b6b565b9250506020612c6c85828601612b0d565b9150509250929050565b600060208284031215612c8c57612c8b612ae2565b5b6000612c9a84828501612b6b565b91505092915050565b600081519050919050565b600082825260208201905092915050565b6000819050602082019050919050565b612cd881612b42565b82525050565b612ce781612aec565b82525050565b600081519050919050565b600082825260208201905092915050565b60005b83811015612d27578082015181840152602081019050612d0c565b83811115612d36576000848401525b50505050565b6000601f19601f8301169050919050565b6000612d5882612ced565b612d628185612cf8565b9350612d72818560208601612d09565b612d7b81612d3c565b840191505092915050565b600081519050919050565b600082825260208201905092915050565b6000819050602082019050919050565b6000612dbe8383612d4d565b905092915050565b6000602082019050919050565b6000612dde82612d86565b612de88185612d91565b935083602082028501612dfa85612da2565b8060005b85811015612e365784840389528151612e178582612db2565b9450612e2283612dc6565b925060208a01995050600181019050612dfe565b50829750879550505050505092915050565b600061016083016000830151612e616000860182612ccf565b506020830151612e746020860182612cde565b5060408301518482036040860152612e8c8282612d4d565b91505060608301518482036060860152612ea68282612d4d565b91505060808301518482036080860152612ec08282612d4d565b91505060a083015184820360a0860152612eda8282612d4d565b91505060c083015184820360c0860152612ef48282612dd3565b91505060e083015184820360e0860152612f0e8282612d4d565b915050610100830151612f25610100860182612cde565b50610120830151612f3a610120860182612cde565b50610140830151612f4f610140860182612cde565b508091505092915050565b6000612f668383612e48565b905092915050565b6000602082019050919050565b6000612f8682612ca3565b612f908185612cae565b935083602082028501612fa285612cbf565b8060005b85811015612fde5784840389528151612fbf8582612f5a565b9450612fca83612f6e565b925060208a01995050600181019050612fa6565b50829750879550505050505092915050565b6000602082019050818103600083015261300a8184612f7b565b905092915050565b6000806040838503121561302957613028612ae2565b5b600061303785828601612b0d565b925050602061304885828601612b0d565b9150509250929050565b61305b81612aec565b82525050565b60006020820190506130766000830184613052565b92915050565b600080fd5b600080fd5b7f4e487b7100000000000000000000000000000000000000000000000000000000600052604160045260246000fd5b6130be82612d3c565b810181811067ffffffffffffffff821117156130dd576130dc613086565b5b80604052505050565b60006130f0612ad8565b90506130fc82826130b5565b919050565b600067ffffffffffffffff82111561311c5761311b613086565b5b61312582612d3c565b9050602081019050919050565b82818337600083830152505050565b600061315461314f84613101565b6130e6565b9050828152602081018484840111156131705761316f613081565b5b61317b848285613132565b509392505050565b600082601f8301126131985761319761307c565b5b81356131a8848260208601613141565b91505092915050565b600067ffffffffffffffff8211156131cc576131cb613086565b5b602082029050602081019050919050565b600080fd5b60006131f56131f0846131b1565b6130e6565b90508083825260208201905060208402830185811115613218576132176131dd565b5b835b8181101561325f57803567ffffffffffffffff81111561323d5761323c61307c565b5b80860161324a8982613183565b8552602085019450505060208101905061321a565b5050509392505050565b600082601f83011261327e5761327d61307c565b5b813561328e8482602086016131e2565b91505092915050565b600080600080600080600060e0888a0312156132b6576132b5612ae2565b5b600088013567ffffffffffffffff8111156132d4576132d3612ae7565b5b6132e08a828b01613183565b975050602088013567ffffffffffffffff81111561330157613300612ae7565b5b61330d8a828b01613183565b965050604088013567ffffffffffffffff81111561332e5761332d612ae7565b5b61333a8a828b01613183565b955050606088013567ffffffffffffffff81111561335b5761335a612ae7565b5b6133678a828b01613183565b945050608088013567ffffffffffffffff81111561338857613387612ae7565b5b6133948a828b01613269565b93505060a088013567ffffffffffffffff8111156133b5576133b4612ae7565b5b6133c18a828b01613183565b92505060c06133d28a828b01612b0d565b91505092959891949750929550565b60006060820190506133f66000830186612bdf565b6134036020830185613052565b6134106040830184613052565b949350505050565b61342181612bd3565b82525050565b600082825260208201905092915050565b600061344382612ca3565b61344d8185613427565b93508360208202850161345f85612cbf565b8060005b8581101561349b578484038952815161347c8582612f5a565b945061348783612f6e565b925060208a01995050600181019050613463565b50829750879550505050505092915050565b600081519050919050565b600082825260208201905092915050565b6000819050602082019050919050565b60006134e58383612cde565b60208301905092915050565b6000602082019050919050565b6000613509826134ad565b61351381856134b8565b935061351e836134c9565b8060005b8381101561354f57815161353688826134d9565b9750613541836134f1565b925050600181019050613522565b5085935050505092915050565b600060c0830160008301516135746000860182613418565b5060208301516135876020860182612cde565b506040830151848203604086015261359f8282613438565b915050606083015184820360608601526135b982826134fe565b915050608083015184820360808601526135d382826134fe565b91505060a08301516135e860a0860182612cde565b508091505092915050565b6000602082019050818103600083015261360d818461355c565b905092915050565b61361e81612b42565b82525050565b600082825260208201905092915050565b600061364082612ced565b61364a8185613624565b935061365a818560208601612d09565b61366381612d3c565b840191505092915050565b600061014082019050613684600083018d613615565b613691602083018c613052565b81810360408301526136a3818b613635565b905081810360608301526136b7818a613635565b905081810360808301526136cb8189613635565b905081810360a08301526136df8188613635565b905081810360c08301526136f38187613635565b905061370260e0830186613052565b613710610100830185613052565b61371e610120830184613052565b9b9a5050505050505050505050565b7f4e487b7100000000000000000000000000000000000000000000000000000000600052601160045260246000fd5b600061376782612aec565b915061377283612aec565b9250827fffffffffffffffffffffffffffffffffffffffffffffffffffffffffffffffff038211156137a7576137a661372d565b5b828201905092915050565b60006060820190506137c76000830186613615565b6137d46020830185613052565b6137e16040830184613052565b949350505050565b7f4e487b7100000000000000000000000000000000000000000000000000000000600052603260045260246000fd5b7f416c62756d20486173206265656e206c696b656420616c726561647900000000600082015250565b600061384e601c83613624565b915061385982613818565b602082019050919050565b6000602082019050818103600083015261387d81613841565b9050919050565b600061388f82612aec565b91507fffffffffffffffffffffffffffffffffffffffffffffffffffffffffffffffff8214156138c2576138c161372d565b5b600182019050919050565b7f596f7520446f206e6f74206861766520656e6f7567682062616c616e6365207460008201527f6f2077697468647261772066726f6d0000000000000000000000000000000000602082015250565b6000613929602f83613624565b9150613934826138cd565b604082019050919050565b600060208201905081810360008301526139588161391c565b9050919050565b7f496e737566696369656e742042616c616e636500000000000000000000000000600082015250565b6000613995601383613624565b91506139a08261395f565b602082019050919050565b600060208201905081810360008301526139c481613988565b9050919050565b60006139d682612aec565b91506139e183612aec565b9250828210156139f4576139f361372d565b5b828203905092915050565b6000606082019050613a146000830186613052565b613a216020830185613615565b613a2e6040830184613052565b949350505050565b7f4e487b7100000000000000000000000000000000000000000000000000000000600052602260045260246000fd5b60006002820490506001821680613a7d57607f821691505b60208210811415613a9157613a90613a36565b5b50919050565b7f596f7520446f204e6f74206861766520616e206163746976652073756273637260008201527f697074696f6e20746f20706c617920616c62756d2c20506c656173652053756260208201527f7363726962650000000000000000000000000000000000000000000000000000604082015250565b6000613b19604683613624565b9150613b2482613a97565b606082019050919050565b60006020820190508181036000830152613b4881613b0c565b9050919050565b60008190508160005260206000209050919050565b60008154613b7181613a65565b613b7b8186613624565b94506001821660008114613b965760018114613ba857613bdb565b60ff1983168652602086019350613bdb565b613bb185613b4f565b60005b83811015613bd357815481890152600182019150602081019050613bb4565b808801955050505b50505092915050565b600060c082019050613bf96000830189613052565b613c066020830188613615565b8181036040830152613c188187613b64565b90508181036060830152613c2c8186613b64565b9050613c3b6080830185613052565b613c4860a0830184613052565b979650505050505050565b7f416c62756d20486173206265656e20526174656420616c726561647900000000600082015250565b6000613c89601c83613624565b9150613c9482613c53565b602082019050919050565b60006020820190508181036000830152613cb881613c7c565b9050919050565b7f4e487b7100000000000000000000000000000000000000000000000000000000600052601260045260246000fd5b6000613cf982612aec565b9150613d0483612aec565b925082613d1457613d13613cbf565b5b828204905092915050565b600082825260208201905092915050565b6000613d3b82612d86565b613d458185613d1f565b935083602082028501613d5785612da2565b8060005b85811015613d935784840389528151613d748582612db2565b9450613d7f83612dc6565b925060208a01995050600181019050613d5b565b50829750879550505050505092915050565b600061010082019050613dbb600083018b613615565b8181036020830152613dcd818a613635565b90508181036040830152613de18189613635565b90508181036060830152613df58188613635565b90508181036080830152613e098187613635565b905081810360a0830152613e1d8186613d30565b905081810360c0830152613e318185613635565b9050613e4060e0830184613052565b999850505050505050505056fea2646970667358221220bb7e0f4537334d3c44653a8c27f875de42c94fe476f1ab825e2cab1756d3850a64736f6c63430008090033",
  "linkReferences": {},
  "deployedLinkReferences": {}
}