{
  "_format": "hh-sol-artifact-1",
  "contractName": "MusicStore",
  "sourceName": "contracts/MusicStore.sol",
  "abi": [
    {
      "inputs": [],
      "stateMutability": "nonpayable",
      "type": "constructor"
    },
    {
      "anonymous": false,
      "inputs": [
        {
          "indexed": false,
          "internalType": "uint256",
          "name": "id",
          "type": "uint256"
        },
        {
          "indexed": false,
          "internalType": "address",
          "name": "Author",
          "type": "address"
        },
        {
          "indexed": false,
          "internalType": "bytes32",
          "name": "playlistTitle",
          "type": "bytes32"
        },
        {
          "indexed": false,
          "internalType": "uint256",
          "name": "releaseDate",
          "type": "uint256"
        },
        {
          "indexed": false,
          "internalType": "uint256",
          "name": "noOfStreams",
          "type": "uint256"
        }
      ],
      "name": "Played",
      "type": "event"
    },
    {
      "anonymous": false,
      "inputs": [
        {
          "indexed": false,
          "internalType": "address",
          "name": "subscriber",
          "type": "address"
        },
        {
          "indexed": false,
          "internalType": "uint256",
          "name": "price",
          "type": "uint256"
        },
        {
          "indexed": false,
          "internalType": "uint256",
          "name": "plan",
          "type": "uint256"
        }
      ],
      "name": "Subscribed",
      "type": "event"
    },
    {
      "anonymous": false,
      "inputs": [
        {
          "indexed": false,
          "internalType": "address",
          "name": "author",
          "type": "address"
        },
        {
          "indexed": false,
          "internalType": "bytes32",
          "name": "title",
          "type": "bytes32"
        },
        {
          "indexed": false,
          "internalType": "string",
          "name": "description",
          "type": "string"
        },
        {
          "indexed": false,
          "internalType": "bytes32",
          "name": "genre",
          "type": "bytes32"
        },
        {
          "indexed": false,
          "internalType": "string[]",
          "name": "tracks",
          "type": "string[]"
        },
        {
          "indexed": false,
          "internalType": "string",
          "name": "coverImage",
          "type": "string"
        },
        {
          "indexed": false,
          "internalType": "uint256",
          "name": "releaseDate",
          "type": "uint256"
        }
      ],
      "name": "Uploaded",
      "type": "event"
    },
    {
      "anonymous": false,
      "inputs": [
        {
          "indexed": false,
          "internalType": "uint256",
          "name": "amount",
          "type": "uint256"
        },
        {
          "indexed": false,
          "internalType": "address",
          "name": "user",
          "type": "address"
        },
        {
          "indexed": false,
          "internalType": "uint256",
          "name": "balance",
          "type": "uint256"
        }
      ],
      "name": "Withdrawn",
      "type": "event"
    },
    {
      "stateMutability": "payable",
      "type": "fallback"
    },
    {
      "inputs": [],
      "name": "getAllPlaylists",
      "outputs": [
        {
          "components": [
            {
              "internalType": "address",
              "name": "author",
              "type": "address"
            },
            {
              "internalType": "uint256",
              "name": "id",
              "type": "uint256"
            },
            {
              "internalType": "bytes32",
              "name": "title",
              "type": "bytes32"
            },
            {
              "internalType": "string",
              "name": "description",
              "type": "string"
            },
            {
              "internalType": "bytes32",
              "name": "genre",
              "type": "bytes32"
            },
            {
              "internalType": "string[]",
              "name": "tracks",
              "type": "string[]"
            },
            {
              "internalType": "string",
              "name": "coverImage",
              "type": "string"
            },
            {
              "internalType": "uint256",
              "name": "releaseDate",
              "type": "uint256"
            },
            {
              "internalType": "uint256",
              "name": "ratings",
              "type": "uint256"
            },
            {
              "internalType": "uint256",
              "name": "noOfStreams",
              "type": "uint256"
            }
          ],
          "internalType": "struct MusicStore.Collection[]",
          "name": "",
          "type": "tuple[]"
        }
      ],
      "stateMutability": "view",
      "type": "function"
    },
    {
      "inputs": [
        {
          "internalType": "address",
          "name": "_user",
          "type": "address"
        }
      ],
      "name": "getUserDetails",
      "outputs": [
        {
          "components": [
            {
              "internalType": "bool",
              "name": "isSubscribed",
              "type": "bool"
            },
            {
              "internalType": "uint256",
              "name": "playablePlaylists",
              "type": "uint256"
            },
            {
              "internalType": "string[]",
              "name": "playedPlaylists",
              "type": "string[]"
            },
            {
              "components": [
                {
                  "internalType": "address",
                  "name": "author",
                  "type": "address"
                },
                {
                  "internalType": "uint256",
                  "name": "id",
                  "type": "uint256"
                },
                {
                  "internalType": "bytes32",
                  "name": "title",
                  "type": "bytes32"
                },
                {
                  "internalType": "string",
                  "name": "description",
                  "type": "string"
                },
                {
                  "internalType": "bytes32",
                  "name": "genre",
                  "type": "bytes32"
                },
                {
                  "internalType": "string[]",
                  "name": "tracks",
                  "type": "string[]"
                },
                {
                  "internalType": "string",
                  "name": "coverImage",
                  "type": "string"
                },
                {
                  "internalType": "uint256",
                  "name": "releaseDate",
                  "type": "uint256"
                },
                {
                  "internalType": "uint256",
                  "name": "ratings",
                  "type": "uint256"
                },
                {
                  "internalType": "uint256",
                  "name": "noOfStreams",
                  "type": "uint256"
                }
              ],
              "internalType": "struct MusicStore.Collection[]",
              "name": "uploadedPlaylists",
              "type": "tuple[]"
            },
            {
              "internalType": "uint256[]",
              "name": "likedPlaylists",
              "type": "uint256[]"
            },
            {
              "internalType": "uint256[]",
              "name": "ratedPlaylists",
              "type": "uint256[]"
            },
            {
              "internalType": "uint256",
              "name": "amountEarned",
              "type": "uint256"
            }
          ],
          "internalType": "struct MusicStore.User",
          "name": "",
          "type": "tuple"
        }
      ],
      "stateMutability": "view",
      "type": "function"
    },
    {
      "inputs": [
        {
          "internalType": "address",
          "name": "_user",
          "type": "address"
        }
      ],
      "name": "getUserUploads",
      "outputs": [
        {
          "components": [
            {
              "internalType": "address",
              "name": "author",
              "type": "address"
            },
            {
              "internalType": "uint256",
              "name": "id",
              "type": "uint256"
            },
            {
              "internalType": "bytes32",
              "name": "title",
              "type": "bytes32"
            },
            {
              "internalType": "string",
              "name": "description",
              "type": "string"
            },
            {
              "internalType": "bytes32",
              "name": "genre",
              "type": "bytes32"
            },
            {
              "internalType": "string[]",
              "name": "tracks",
              "type": "string[]"
            },
            {
              "internalType": "string",
              "name": "coverImage",
              "type": "string"
            },
            {
              "internalType": "uint256",
              "name": "releaseDate",
              "type": "uint256"
            },
            {
              "internalType": "uint256",
              "name": "ratings",
              "type": "uint256"
            },
            {
              "internalType": "uint256",
              "name": "noOfStreams",
              "type": "uint256"
            }
          ],
          "internalType": "struct MusicStore.Collection[]",
          "name": "",
          "type": "tuple[]"
        }
      ],
      "stateMutability": "view",
      "type": "function"
    },
    {
      "inputs": [
        {
          "internalType": "address",
          "name": "_user",
          "type": "address"
        },
        {
          "internalType": "uint256",
          "name": "_playlistId",
          "type": "uint256"
        }
      ],
      "name": "isLiked",
      "outputs": [
        {
          "internalType": "bool",
          "name": "liked",
          "type": "bool"
        }
      ],
      "stateMutability": "view",
      "type": "function"
    },
    {
      "inputs": [
        {
          "internalType": "uint256",
          "name": "_playlistId",
          "type": "uint256"
        }
      ],
      "name": "likePlaylist",
      "outputs": [],
      "stateMutability": "nonpayable",
      "type": "function"
    },
    {
      "inputs": [
        {
          "internalType": "uint256",
          "name": "_id",
          "type": "uint256"
        }
      ],
      "name": "play",
      "outputs": [
        {
          "internalType": "bool",
          "name": "success",
          "type": "bool"
        }
      ],
      "stateMutability": "nonpayable",
      "type": "function"
    },
    {
      "inputs": [
        {
          "internalType": "uint256",
          "name": "",
          "type": "uint256"
        }
      ],
      "name": "playlists",
      "outputs": [
        {
          "internalType": "address",
          "name": "author",
          "type": "address"
        },
        {
          "internalType": "uint256",
          "name": "id",
          "type": "uint256"
        },
        {
          "internalType": "bytes32",
          "name": "title",
          "type": "bytes32"
        },
        {
          "internalType": "string",
          "name": "description",
          "type": "string"
        },
        {
          "internalType": "bytes32",
          "name": "genre",
          "type": "bytes32"
        },
        {
          "internalType": "string",
          "name": "coverImage",
          "type": "string"
        },
        {
          "internalType": "uint256",
          "name": "releaseDate",
          "type": "uint256"
        },
        {
          "internalType": "uint256",
          "name": "ratings",
          "type": "uint256"
        },
        {
          "internalType": "uint256",
          "name": "noOfStreams",
          "type": "uint256"
        }
      ],
      "stateMutability": "view",
      "type": "function"
    },
    {
      "inputs": [
        {
          "internalType": "uint256",
          "name": "",
          "type": "uint256"
        }
      ],
      "name": "playlistsArray",
      "outputs": [
        {
          "internalType": "address",
          "name": "author",
          "type": "address"
        },
        {
          "internalType": "uint256",
          "name": "id",
          "type": "uint256"
        },
        {
          "internalType": "bytes32",
          "name": "title",
          "type": "bytes32"
        },
        {
          "internalType": "string",
          "name": "description",
          "type": "string"
        },
        {
          "internalType": "bytes32",
          "name": "genre",
          "type": "bytes32"
        },
        {
          "internalType": "string",
          "name": "coverImage",
          "type": "string"
        },
        {
          "internalType": "uint256",
          "name": "releaseDate",
          "type": "uint256"
        },
        {
          "internalType": "uint256",
          "name": "ratings",
          "type": "uint256"
        },
        {
          "internalType": "uint256",
          "name": "noOfStreams",
          "type": "uint256"
        }
      ],
      "stateMutability": "view",
      "type": "function"
    },
    {
      "inputs": [
        {
          "internalType": "uint256",
          "name": "_playlistId",
          "type": "uint256"
        },
        {
          "internalType": "address",
          "name": "_user",
          "type": "address"
        },
        {
          "internalType": "uint256",
          "name": "_rating",
          "type": "uint256"
        }
      ],
      "name": "rateAlbum",
      "outputs": [],
      "stateMutability": "nonpayable",
      "type": "function"
    },
    {
      "inputs": [
        {
          "internalType": "uint256",
          "name": "",
          "type": "uint256"
        },
        {
          "internalType": "uint256",
          "name": "",
          "type": "uint256"
        }
      ],
      "name": "ratings",
      "outputs": [
        {
          "internalType": "uint256",
          "name": "",
          "type": "uint256"
        }
      ],
      "stateMutability": "view",
      "type": "function"
    },
    {
      "inputs": [
        {
          "internalType": "uint256",
          "name": "plan",
          "type": "uint256"
        },
        {
          "internalType": "address payable",
          "name": "_user",
          "type": "address"
        },
        {
          "internalType": "uint256",
          "name": "price",
          "type": "uint256"
        }
      ],
      "name": "subscribe",
      "outputs": [
        {
          "internalType": "bool",
          "name": "success",
          "type": "bool"
        }
      ],
      "stateMutability": "payable",
      "type": "function"
    },
    {
      "inputs": [
        {
          "internalType": "bytes32",
          "name": "_title",
          "type": "bytes32"
        },
        {
          "internalType": "string",
          "name": "_description",
          "type": "string"
        },
        {
          "internalType": "bytes32",
          "name": "_genre",
          "type": "bytes32"
        },
        {
          "internalType": "string[]",
          "name": "_tracks",
          "type": "string[]"
        },
        {
          "internalType": "string",
          "name": "_coverImage",
          "type": "string"
        },
        {
          "internalType": "uint256",
          "name": "_releaseDate",
          "type": "uint256"
        }
      ],
      "name": "uploadPlaylist",
      "outputs": [
        {
          "internalType": "bool",
          "name": "success",
          "type": "bool"
        }
      ],
      "stateMutability": "payable",
      "type": "function"
    },
    {
      "inputs": [
        {
          "internalType": "address",
          "name": "",
          "type": "address"
        }
      ],
      "name": "users",
      "outputs": [
        {
          "internalType": "bool",
          "name": "isSubscribed",
          "type": "bool"
        },
        {
          "internalType": "uint256",
          "name": "playablePlaylists",
          "type": "uint256"
        },
        {
          "internalType": "uint256",
          "name": "amountEarned",
          "type": "uint256"
        }
      ],
      "stateMutability": "view",
      "type": "function"
    },
    {
      "inputs": [
        {
          "internalType": "uint256",
          "name": "_amount",
          "type": "uint256"
        }
      ],
      "name": "withdraw",
      "outputs": [],
      "stateMutability": "payable",
      "type": "function"
    },
    {
      "stateMutability": "payable",
      "type": "receive"
    }
  ],
  "bytecode": "0x60806040526000600255600060035534801561001a57600080fd5b5073cf9ab7dbed8d5d104167012c91a4fb0b7504cd2b6000806101000a81548173ffffffffffffffffffffffffffffffffffffffff021916908373ffffffffffffffffffffffffffffffffffffffff1602179055506138ac8061007e6000396000f3fe6080604052600436106100e15760003560e01c80636898f82b1161007f578063a87430ba11610059578063a87430ba146102f3578063ae0e245414610332578063cc3d967b1461035b578063ecc6362f14610398576100e8565b80636898f82b1461026257806369f63db91461029f5780637280345b146102c8576100e8565b8063346d971d116100bb578063346d971d14610166578063412bd348146101a357806344879930146101e0578063482ef36014610225576100e8565b8063021683e1146100ea578063174562f31461011a5780632e1a7d4d1461014a576100e8565b366100e857005b005b61010460048036038101906100ff9190612547565b6103dd565b60405161011191906125b5565b60405180910390f35b610134600480360381019061012f9190612832565b6106f2565b60405161014191906125b5565b60405180910390f35b610164600480360381019061015f9190612913565b610b0b565b005b34801561017257600080fd5b5061018d6004803603810190610188919061297e565b610d9f565b60405161019a91906125b5565b60405180910390f35b3480156101af57600080fd5b506101ca60048036038101906101c591906129be565b610e56565b6040516101d79190612d0c565b60405180910390f35b3480156101ec57600080fd5b5061020760048036038101906102029190612913565b611187565b60405161021c99989796959493929190612da5565b60405180910390f35b34801561023157600080fd5b5061024c60048036038101906102479190612e40565b611315565b6040516102599190612e80565b60405180910390f35b34801561026e57600080fd5b5061028960048036038101906102849190612913565b611346565b60405161029691906125b5565b60405180910390f35b3480156102ab57600080fd5b506102c660048036038101906102c19190612e9b565b611651565b005b3480156102d457600080fd5b506102dd61184c565b6040516102ea9190612d0c565b60405180910390f35b3480156102ff57600080fd5b5061031a600480360381019061031591906129be565b611b3b565b60405161032993929190612eee565b60405180910390f35b34801561033e57600080fd5b5061035960048036038101906103549190612913565b611b72565b005b34801561036757600080fd5b50610382600480360381019061037d91906129be565b611c7b565b60405161038f919061311a565b60405180910390f35b3480156103a457600080fd5b506103bf60048036038101906103ba9190612913565b61217b565b6040516103d499989796959493929190612da5565b60405180910390f35b60003373ffffffffffffffffffffffffffffffffffffffff168373ffffffffffffffffffffffffffffffffffffffff161461041757600080fd5b6000600560008573ffffffffffffffffffffffffffffffffffffffff1673ffffffffffffffffffffffffffffffffffffffff16815260200190815260200160002090506001851415610534573073ffffffffffffffffffffffffffffffffffffffff166108fc600b8561048a919061319a565b9081150290604051600060405180830381858888f193505050501580156104b5573d6000803e3d6000fd5b5060648160010160008282546104cb91906131cb565b9250508190555060018160000160006101000a81548160ff0219169083151502179055507ff94991dcbea6e8ac439cbc93bd9c62a4d39f04e0ad656df9a703f13552c2787f84848760405161052293929190613280565b60405180910390a160019150506106eb565b600285141561060e573073ffffffffffffffffffffffffffffffffffffffff166108fc600b85610564919061319a565b9081150290604051600060405180830381858888f1935050505015801561058f573d6000803e3d6000fd5b5060c88160010160008282546105a591906131cb565b9250508190555060018160000160006101000a81548160ff0219169083151502179055507ff94991dcbea6e8ac439cbc93bd9c62a4d39f04e0ad656df9a703f13552c2787f8484876040516105fc93929190613280565b60405180910390a160019150506106eb565b60038514156106e9573073ffffffffffffffffffffffffffffffffffffffff166108fc600b8561063e919061319a565b9081150290604051600060405180830381858888f19350505050158015610669573d6000803e3d6000fd5b5061012c81600101600082825461068091906131cb565b9250508190555060018160000160006101000a81548160ff0219169083151502179055507ff94991dcbea6e8ac439cbc93bd9c62a4d39f04e0ad656df9a703f13552c2787f8484876040516106d793929190613280565b60405180910390a160019150506106eb565b505b9392505050565b600060016000815480929190610707906132b7565b919050555060006040518061014001604052803373ffffffffffffffffffffffffffffffffffffffff168152602001600154815260200189815260200188815260200187815260200186815260200185815260200184815260200160008152602001600081525090508060066000600154815260200190815260200160002060008201518160000160006101000a81548173ffffffffffffffffffffffffffffffffffffffff021916908373ffffffffffffffffffffffffffffffffffffffff160217905550602082015181600101556040820151816002015560608201518160030190805190602001906107fd9291906122f9565b506080820151816004015560a082015181600501908051906020019061082492919061237f565b5060c08201518160060190805190602001906108419291906122f9565b5060e082015181600701556101008201518160080155610120820151816009015590505060088190806001815401808255809150506001900390600052602060002090600a020160009091909190915060008201518160000160006101000a81548173ffffffffffffffffffffffffffffffffffffffff021916908373ffffffffffffffffffffffffffffffffffffffff160217905550602082015181600101556040820151816002015560608201518160030190805190602001906109089291906122f9565b506080820151816004015560a082015181600501908051906020019061092f92919061237f565b5060c082015181600601908051906020019061094c9291906122f9565b5060e08201518160070155610100820151816008015561012082015181600901555050600560003373ffffffffffffffffffffffffffffffffffffffff1673ffffffffffffffffffffffffffffffffffffffff1681526020019081526020016000206003018190806001815401808255809150506001900390600052602060002090600a020160009091909190915060008201518160000160006101000a81548173ffffffffffffffffffffffffffffffffffffffff021916908373ffffffffffffffffffffffffffffffffffffffff16021790555060208201518160010155604082015181600201556060820151816003019080519060200190610a529291906122f9565b506080820151816004015560a0820151816005019080519060200190610a7992919061237f565b5060c0820151816006019080519060200190610a969291906122f9565b5060e082015181600701556101008201518160080155610120820151816009015550507fa85f7894e08727c06653121dcdb569203d767b1396b7191c29ad265f23be8f2033898989898989604051610af49796959493929190613386565b60405180910390a160019150509695505050505050565b6000600560003373ffffffffffffffffffffffffffffffffffffffff1673ffffffffffffffffffffffffffffffffffffffff1681526020019081526020016000206006015411610b90576040517f08c379a0000000000000000000000000000000000000000000000000000000008152600401610b879061347c565b60405180910390fd5b80600560003373ffffffffffffffffffffffffffffffffffffffff1673ffffffffffffffffffffffffffffffffffffffff1681526020019081526020016000206006015411610c14576040517f08c379a0000000000000000000000000000000000000000000000000000000008152600401610c0b906134e8565b60405180910390fd5b600460009054906101000a900473ffffffffffffffffffffffffffffffffffffffff1673ffffffffffffffffffffffffffffffffffffffff166323b872dd3033846040518463ffffffff1660e01b8152600401610c7393929190613508565b602060405180830381600087803b158015610c8d57600080fd5b505af1158015610ca1573d6000803e3d6000fd5b505050506040513d601f19601f82011682018060405250810190610cc5919061356b565b5080600560003373ffffffffffffffffffffffffffffffffffffffff1673ffffffffffffffffffffffffffffffffffffffff1681526020019081526020016000206006016000828254610d189190613598565b925050819055507fcf7d23a3cbe4e8b36ff82fd1b05b1b17373dc7804b4ebbd6e2356716ef2023728133600560003373ffffffffffffffffffffffffffffffffffffffff1673ffffffffffffffffffffffffffffffffffffffff16815260200190815260200160002060060154604051610d94939291906135cc565b60405180910390a150565b600080600560008573ffffffffffffffffffffffffffffffffffffffff1673ffffffffffffffffffffffffffffffffffffffff168152602001908152602001600020905060005b8160040180549050811015610e49576006600085815260200190815260200160002060010154826004018281548110610e2257610e21613603565b5b90600052602060002001541415610e3e57600192505050610e50565b806001019050610de6565b5060009150505b92915050565b6060600560008373ffffffffffffffffffffffffffffffffffffffff1673ffffffffffffffffffffffffffffffffffffffff168152602001908152602001600020600301805480602002602001604051908101604052809291908181526020016000905b8282101561117c57838290600052602060002090600a0201604051806101400160405290816000820160009054906101000a900473ffffffffffffffffffffffffffffffffffffffff1673ffffffffffffffffffffffffffffffffffffffff1673ffffffffffffffffffffffffffffffffffffffff1681526020016001820154815260200160028201548152602001600382018054610f5890613661565b80601f0160208091040260200160405190810160405280929190818152602001828054610f8490613661565b8015610fd15780601f10610fa657610100808354040283529160200191610fd1565b820191906000526020600020905b815481529060010190602001808311610fb457829003601f168201915b505050505081526020016004820154815260200160058201805480602002602001604051908101604052809291908181526020016000905b828210156110b557838290600052602060002001805461102890613661565b80601f016020809104026020016040519081016040528092919081815260200182805461105490613661565b80156110a15780601f10611076576101008083540402835291602001916110a1565b820191906000526020600020905b81548152906001019060200180831161108457829003601f168201915b505050505081526020019060010190611009565b5050505081526020016006820180546110cd90613661565b80601f01602080910402602001604051908101604052809291908181526020018280546110f990613661565b80156111465780601f1061111b57610100808354040283529160200191611146565b820191906000526020600020905b81548152906001019060200180831161112957829003601f168201915b50505050508152602001600782015481526020016008820154815260200160098201548152505081526020019060010190610eba565b505050509050919050565b6008818154811061119757600080fd5b90600052602060002090600a02016000915090508060000160009054906101000a900473ffffffffffffffffffffffffffffffffffffffff16908060010154908060020154908060030180546111ec90613661565b80601f016020809104026020016040519081016040528092919081815260200182805461121890613661565b80156112655780601f1061123a57610100808354040283529160200191611265565b820191906000526020600020905b81548152906001019060200180831161124857829003601f168201915b50505050509080600401549080600601805461128090613661565b80601f01602080910402602001604051908101604052809291908181526020018280546112ac90613661565b80156112f95780601f106112ce576101008083540402835291602001916112f9565b820191906000526020600020905b8154815290600101906020018083116112dc57829003601f168201915b5050505050908060070154908060080154908060090154905089565b6007602052816000526040600020818154811061133157600080fd5b90600052602060002001600091509150505481565b600080600560003373ffffffffffffffffffffffffffffffffffffffff1673ffffffffffffffffffffffffffffffffffffffff16815260200190815260200160002060010154116113cc576040517f08c379a00000000000000000000000000000000000000000000000000000000081526004016113c39061372b565b60405180910390fd5b60016006600084815260200190815260200160002060090160008282546113f391906131cb565b9250508190555066038d7ea4c68000600560006006600086815260200190815260200160002060000160009054906101000a900473ffffffffffffffffffffffffffffffffffffffff1673ffffffffffffffffffffffffffffffffffffffff1673ffffffffffffffffffffffffffffffffffffffff168152602001908152602001600020600601600082825461148991906131cb565b925050819055507f3c3eade867c8404fd178945f4d9a2e146b820d758fc2b1fbbe99019011832af8826006600085815260200190815260200160002060000160009054906101000a900473ffffffffffffffffffffffffffffffffffffffff1660066000868152602001908152602001600020600201546006600087815260200190815260200160002060070154600660008881526020019081526020016000206009015460405161153f95949392919061374b565b60405180910390a16001600560003373ffffffffffffffffffffffffffffffffffffffff1673ffffffffffffffffffffffffffffffffffffffff168152602001908152602001600020600101600082825461159a9190613598565b925050819055506000600560003373ffffffffffffffffffffffffffffffffffffffff1673ffffffffffffffffffffffffffffffffffffffff168152602001908152602001600020600101541415611648576000600560003373ffffffffffffffffffffffffffffffffffffffff1673ffffffffffffffffffffffffffffffffffffffff16815260200190815260200160002060000160006101000a81548160ff0219169083151502179055505b60019050919050565b6000600560008473ffffffffffffffffffffffffffffffffffffffff1673ffffffffffffffffffffffffffffffffffffffff1681526020019081526020016000209050600060066000868152602001908152602001600020905060005b82600501805490508110156118445760066000878152602001908152602001600020600101548360050182815481106116ea576116e9613603565b5b90600052602060002001541415611736576040517f08c379a000000000000000000000000000000000000000000000000000000000815260040161172d906137ea565b60405180910390fd5b82600501869080600181540180825580915050600190039060005260206000200160009091909190915055600760008781526020019081526020016000208490806001815401808255809150506001900390600052602060002001600090919091909150556000805b600760008981526020019081526020016000208054905081101561180d576007600089815260200190815260200160002081815481106117e2576117e1613603565b5b9060005260206000200154826117f891906131cb565b91508080611805906132b7565b91505061179f565b50600760008881526020019081526020016000208054905081611830919061319a565b8360080181905550508060010190506116ae565b505050505050565b60606008805480602002602001604051908101604052809291908181526020016000905b82821015611b3257838290600052602060002090600a0201604051806101400160405290816000820160009054906101000a900473ffffffffffffffffffffffffffffffffffffffff1673ffffffffffffffffffffffffffffffffffffffff1673ffffffffffffffffffffffffffffffffffffffff168152602001600182015481526020016002820154815260200160038201805461190e90613661565b80601f016020809104026020016040519081016040528092919081815260200182805461193a90613661565b80156119875780601f1061195c57610100808354040283529160200191611987565b820191906000526020600020905b81548152906001019060200180831161196a57829003601f168201915b505050505081526020016004820154815260200160058201805480602002602001604051908101604052809291908181526020016000905b82821015611a6b5783829060005260206000200180546119de90613661565b80601f0160208091040260200160405190810160405280929190818152602001828054611a0a90613661565b8015611a575780601f10611a2c57610100808354040283529160200191611a57565b820191906000526020600020905b815481529060010190602001808311611a3a57829003601f168201915b5050505050815260200190600101906119bf565b505050508152602001600682018054611a8390613661565b80601f0160208091040260200160405190810160405280929190818152602001828054611aaf90613661565b8015611afc5780601f10611ad157610100808354040283529160200191611afc565b820191906000526020600020905b815481529060010190602001808311611adf57829003601f168201915b50505050508152602001600782015481526020016008820154815260200160098201548152505081526020019060010190611870565b50505050905090565b60056020528060005260406000206000915090508060000160009054906101000a900460ff16908060010154908060060154905083565b6000600560003373ffffffffffffffffffffffffffffffffffffffff1673ffffffffffffffffffffffffffffffffffffffff168152602001908152602001600020905060005b8160040180549050811015611c76576006600084815260200190815260200160002060010154826004018281548110611bf457611bf3613603565b5b90600052602060002001541415611c40576040517f08c379a0000000000000000000000000000000000000000000000000000000008152600401611c3790613856565b60405180910390fd5b80600101905081600401839080600181540180825580915050600190039060005260206000200160009091909190915055611bb8565b505050565b611c836123df565b600560008373ffffffffffffffffffffffffffffffffffffffff1673ffffffffffffffffffffffffffffffffffffffff1681526020019081526020016000206040518060e00160405290816000820160009054906101000a900460ff161515151581526020016001820154815260200160028201805480602002602001604051908101604052809291908181526020016000905b82821015611dc3578382906000526020600020018054611d3690613661565b80601f0160208091040260200160405190810160405280929190818152602001828054611d6290613661565b8015611daf5780601f10611d8457610100808354040283529160200191611daf565b820191906000526020600020905b815481529060010190602001808311611d9257829003601f168201915b505050505081526020019060010190611d17565b50505050815260200160038201805480602002602001604051908101604052809291908181526020016000905b828210156120b257838290600052602060002090600a0201604051806101400160405290816000820160009054906101000a900473ffffffffffffffffffffffffffffffffffffffff1673ffffffffffffffffffffffffffffffffffffffff1673ffffffffffffffffffffffffffffffffffffffff1681526020016001820154815260200160028201548152602001600382018054611e8e90613661565b80601f0160208091040260200160405190810160405280929190818152602001828054611eba90613661565b8015611f075780601f10611edc57610100808354040283529160200191611f07565b820191906000526020600020905b815481529060010190602001808311611eea57829003601f168201915b505050505081526020016004820154815260200160058201805480602002602001604051908101604052809291908181526020016000905b82821015611feb578382906000526020600020018054611f5e90613661565b80601f0160208091040260200160405190810160405280929190818152602001828054611f8a90613661565b8015611fd75780601f10611fac57610100808354040283529160200191611fd7565b820191906000526020600020905b815481529060010190602001808311611fba57829003601f168201915b505050505081526020019060010190611f3f565b50505050815260200160068201805461200390613661565b80601f016020809104026020016040519081016040528092919081815260200182805461202f90613661565b801561207c5780601f106120515761010080835404028352916020019161207c565b820191906000526020600020905b81548152906001019060200180831161205f57829003601f168201915b50505050508152602001600782015481526020016008820154815260200160098201548152505081526020019060010190611df0565b5050505081526020016004820180548060200260200160405190810160405280929190818152602001828054801561210957602002820191906000526020600020905b8154815260200190600101908083116120f5575b505050505081526020016005820180548060200260200160405190810160405280929190818152602001828054801561216157602002820191906000526020600020905b81548152602001906001019080831161214d575b505050505081526020016006820154815250509050919050565b60066020528060005260406000206000915090508060000160009054906101000a900473ffffffffffffffffffffffffffffffffffffffff16908060010154908060020154908060030180546121d090613661565b80601f01602080910402602001604051908101604052809291908181526020018280546121fc90613661565b80156122495780601f1061221e57610100808354040283529160200191612249565b820191906000526020600020905b81548152906001019060200180831161222c57829003601f168201915b50505050509080600401549080600601805461226490613661565b80601f016020809104026020016040519081016040528092919081815260200182805461229090613661565b80156122dd5780601f106122b2576101008083540402835291602001916122dd565b820191906000526020600020905b8154815290600101906020018083116122c057829003601f168201915b5050505050908060070154908060080154908060090154905089565b82805461230590613661565b90600052602060002090601f016020900481019282612327576000855561236e565b82601f1061234057805160ff191683800117855561236e565b8280016001018555821561236e579182015b8281111561236d578251825591602001919060010190612352565b5b50905061237b919061241e565b5090565b8280548282559060005260206000209081019282156123ce579160200282015b828111156123cd5782518290805190602001906123bd9291906122f9565b509160200191906001019061239f565b5b5090506123db919061243b565b5090565b6040518060e001604052806000151581526020016000815260200160608152602001606081526020016060815260200160608152602001600081525090565b5b8082111561243757600081600090555060010161241f565b5090565b5b8082111561245b5760008181612452919061245f565b5060010161243c565b5090565b50805461246b90613661565b6000825580601f1061247d575061249c565b601f01602090049060005260206000209081019061249b919061241e565b5b50565b6000604051905090565b600080fd5b600080fd5b6000819050919050565b6124c6816124b3565b81146124d157600080fd5b50565b6000813590506124e3816124bd565b92915050565b600073ffffffffffffffffffffffffffffffffffffffff82169050919050565b6000612514826124e9565b9050919050565b61252481612509565b811461252f57600080fd5b50565b6000813590506125418161251b565b92915050565b6000806000606084860312156125605761255f6124a9565b5b600061256e868287016124d4565b935050602061257f86828701612532565b9250506040612590868287016124d4565b9150509250925092565b60008115159050919050565b6125af8161259a565b82525050565b60006020820190506125ca60008301846125a6565b92915050565b6000819050919050565b6125e3816125d0565b81146125ee57600080fd5b50565b600081359050612600816125da565b92915050565b600080fd5b600080fd5b6000601f19601f8301169050919050565b7f4e487b7100000000000000000000000000000000000000000000000000000000600052604160045260246000fd5b61265982612610565b810181811067ffffffffffffffff8211171561267857612677612621565b5b80604052505050565b600061268b61249f565b90506126978282612650565b919050565b600067ffffffffffffffff8211156126b7576126b6612621565b5b6126c082612610565b9050602081019050919050565b82818337600083830152505050565b60006126ef6126ea8461269c565b612681565b90508281526020810184848401111561270b5761270a61260b565b5b6127168482856126cd565b509392505050565b600082601f83011261273357612732612606565b5b81356127438482602086016126dc565b91505092915050565b600067ffffffffffffffff82111561276757612766612621565b5b602082029050602081019050919050565b600080fd5b600061279061278b8461274c565b612681565b905080838252602082019050602084028301858111156127b3576127b2612778565b5b835b818110156127fa57803567ffffffffffffffff8111156127d8576127d7612606565b5b8086016127e5898261271e565b855260208501945050506020810190506127b5565b5050509392505050565b600082601f83011261281957612818612606565b5b813561282984826020860161277d565b91505092915050565b60008060008060008060c0878903121561284f5761284e6124a9565b5b600061285d89828a016125f1565b965050602087013567ffffffffffffffff81111561287e5761287d6124ae565b5b61288a89828a0161271e565b955050604061289b89828a016125f1565b945050606087013567ffffffffffffffff8111156128bc576128bb6124ae565b5b6128c889828a01612804565b935050608087013567ffffffffffffffff8111156128e9576128e86124ae565b5b6128f589828a0161271e565b92505060a061290689828a016124d4565b9150509295509295509295565b600060208284031215612929576129286124a9565b5b6000612937848285016124d4565b91505092915050565b600061294b826124e9565b9050919050565b61295b81612940565b811461296657600080fd5b50565b60008135905061297881612952565b92915050565b60008060408385031215612995576129946124a9565b5b60006129a385828601612969565b92505060206129b4858286016124d4565b9150509250929050565b6000602082840312156129d4576129d36124a9565b5b60006129e284828501612969565b91505092915050565b600081519050919050565b600082825260208201905092915050565b6000819050602082019050919050565b612a2081612940565b82525050565b612a2f816124b3565b82525050565b612a3e816125d0565b82525050565b600081519050919050565b600082825260208201905092915050565b60005b83811015612a7e578082015181840152602081019050612a63565b83811115612a8d576000848401525b50505050565b6000612a9e82612a44565b612aa88185612a4f565b9350612ab8818560208601612a60565b612ac181612610565b840191505092915050565b600081519050919050565b600082825260208201905092915050565b6000819050602082019050919050565b6000612b048383612a93565b905092915050565b6000602082019050919050565b6000612b2482612acc565b612b2e8185612ad7565b935083602082028501612b4085612ae8565b8060005b85811015612b7c5784840389528151612b5d8582612af8565b9450612b6883612b0c565b925060208a01995050600181019050612b44565b50829750879550505050505092915050565b600061014083016000830151612ba76000860182612a17565b506020830151612bba6020860182612a26565b506040830151612bcd6040860182612a35565b5060608301518482036060860152612be58282612a93565b9150506080830151612bfa6080860182612a35565b5060a083015184820360a0860152612c128282612b19565b91505060c083015184820360c0860152612c2c8282612a93565b91505060e0830151612c4160e0860182612a26565b50610100830151612c56610100860182612a26565b50610120830151612c6b610120860182612a26565b508091505092915050565b6000612c828383612b8e565b905092915050565b6000602082019050919050565b6000612ca2826129eb565b612cac81856129f6565b935083602082028501612cbe85612a07565b8060005b85811015612cfa5784840389528151612cdb8582612c76565b9450612ce683612c8a565b925060208a01995050600181019050612cc2565b50829750879550505050505092915050565b60006020820190508181036000830152612d268184612c97565b905092915050565b612d3781612940565b82525050565b612d46816124b3565b82525050565b612d55816125d0565b82525050565b600082825260208201905092915050565b6000612d7782612a44565b612d818185612d5b565b9350612d91818560208601612a60565b612d9a81612610565b840191505092915050565b600061012082019050612dbb600083018c612d2e565b612dc8602083018b612d3d565b612dd5604083018a612d4c565b8181036060830152612de78189612d6c565b9050612df66080830188612d4c565b81810360a0830152612e088187612d6c565b9050612e1760c0830186612d3d565b612e2460e0830185612d3d565b612e32610100830184612d3d565b9a9950505050505050505050565b60008060408385031215612e5757612e566124a9565b5b6000612e65858286016124d4565b9250506020612e76858286016124d4565b9150509250929050565b6000602082019050612e956000830184612d3d565b92915050565b600080600060608486031215612eb457612eb36124a9565b5b6000612ec2868287016124d4565b9350506020612ed386828701612969565b9250506040612ee4868287016124d4565b9150509250925092565b6000606082019050612f0360008301866125a6565b612f106020830185612d3d565b612f1d6040830184612d3d565b949350505050565b612f2e8161259a565b82525050565b600082825260208201905092915050565b6000612f50826129eb565b612f5a8185612f34565b935083602082028501612f6c85612a07565b8060005b85811015612fa85784840389528151612f898582612c76565b9450612f9483612c8a565b925060208a01995050600181019050612f70565b50829750879550505050505092915050565b600081519050919050565b600082825260208201905092915050565b6000819050602082019050919050565b6000612ff28383612a26565b60208301905092915050565b6000602082019050919050565b600061301682612fba565b6130208185612fc5565b935061302b83612fd6565b8060005b8381101561305c5781516130438882612fe6565b975061304e83612ffe565b92505060018101905061302f565b5085935050505092915050565b600060e0830160008301516130816000860182612f25565b5060208301516130946020860182612a26565b50604083015184820360408601526130ac8282612b19565b915050606083015184820360608601526130c68282612f45565b915050608083015184820360808601526130e0828261300b565b91505060a083015184820360a08601526130fa828261300b565b91505060c083015161310f60c0860182612a26565b508091505092915050565b600060208201905081810360008301526131348184613069565b905092915050565b7f4e487b7100000000000000000000000000000000000000000000000000000000600052601260045260246000fd5b7f4e487b7100000000000000000000000000000000000000000000000000000000600052601160045260246000fd5b60006131a5826124b3565b91506131b0836124b3565b9250826131c0576131bf61313c565b5b828204905092915050565b60006131d6826124b3565b91506131e1836124b3565b9250827fffffffffffffffffffffffffffffffffffffffffffffffffffffffffffffffff038211156132165761321561316b565b5b828201905092915050565b6000819050919050565b600061324661324161323c846124e9565b613221565b6124e9565b9050919050565b60006132588261322b565b9050919050565b600061326a8261324d565b9050919050565b61327a8161325f565b82525050565b60006060820190506132956000830186613271565b6132a26020830185612d3d565b6132af6040830184612d3d565b949350505050565b60006132c2826124b3565b91507fffffffffffffffffffffffffffffffffffffffffffffffffffffffffffffffff8214156132f5576132f461316b565b5b600182019050919050565b600082825260208201905092915050565b600061331c82612acc565b6133268185613300565b93508360208202850161333885612ae8565b8060005b8581101561337457848403895281516133558582612af8565b945061336083612b0c565b925060208a0199505060018101905061333c565b50829750879550505050505092915050565b600060e08201905061339b600083018a612d2e565b6133a86020830189612d4c565b81810360408301526133ba8188612d6c565b90506133c96060830187612d4c565b81810360808301526133db8186613311565b905081810360a08301526133ef8185612d6c565b90506133fe60c0830184612d3d565b98975050505050505050565b7f596f7520446f206e6f74206861766520656e6f7567682062616c616e6365207460008201527f6f2077697468647261772066726f6d0000000000000000000000000000000000602082015250565b6000613466602f83612d5b565b91506134718261340a565b604082019050919050565b6000602082019050818103600083015261349581613459565b9050919050565b7f496e737566696369656e742042616c616e636500000000000000000000000000600082015250565b60006134d2601383612d5b565b91506134dd8261349c565b602082019050919050565b60006020820190508181036000830152613501816134c5565b9050919050565b600060608201905061351d6000830186612d2e565b61352a6020830185612d2e565b6135376040830184612d3d565b949350505050565b6135488161259a565b811461355357600080fd5b50565b6000815190506135658161353f565b92915050565b600060208284031215613581576135806124a9565b5b600061358f84828501613556565b91505092915050565b60006135a3826124b3565b91506135ae836124b3565b9250828210156135c1576135c061316b565b5b828203905092915050565b60006060820190506135e16000830186612d3d565b6135ee6020830185612d2e565b6135fb6040830184612d3d565b949350505050565b7f4e487b7100000000000000000000000000000000000000000000000000000000600052603260045260246000fd5b7f4e487b7100000000000000000000000000000000000000000000000000000000600052602260045260246000fd5b6000600282049050600182168061367957607f821691505b6020821081141561368d5761368c613632565b5b50919050565b7f596f7520446f204e6f74206861766520616e206163746976652073756273637260008201527f697074696f6e20746f20706c617920616c62756d2c20506c656173652053756260208201527f7363726962650000000000000000000000000000000000000000000000000000604082015250565b6000613715604683612d5b565b915061372082613693565b606082019050919050565b6000602082019050818103600083015261374481613708565b9050919050565b600060a0820190506137606000830188612d3d565b61376d6020830187612d2e565b61377a6040830186612d4c565b6137876060830185612d3d565b6137946080830184612d3d565b9695505050505050565b7f416c62756d20486173206265656e20526174656420616c726561647900000000600082015250565b60006137d4601c83612d5b565b91506137df8261379e565b602082019050919050565b60006020820190508181036000830152613803816137c7565b9050919050565b7f416c62756d20486173206265656e206c696b656420616c726561647900000000600082015250565b6000613840601c83612d5b565b915061384b8261380a565b602082019050919050565b6000602082019050818103600083015261386f81613833565b905091905056fea2646970667358221220a4c7668635afc9d47a83ee86be146fa49bd4dd50bf03e5b85e57c5c37e202dae64736f6c63430008090033",
  "linkReferences": {},
  "deployedLinkReferences": {}
}