{
  "_format": "hh-sol-artifact-1",
  "contractName": "MusicStore",
  "sourceName": "contracts/MusicStore.sol",
  "abi": [
    {
      "anonymous": false,
      "inputs": [
        {
          "indexed": false,
          "internalType": "uint256",
          "name": "id",
          "type": "uint256"
        },
        {
          "indexed": false,
          "internalType": "address",
          "name": "Author",
          "type": "address"
        },
        {
          "indexed": false,
          "internalType": "string",
          "name": "albumTitle",
          "type": "string"
        },
        {
          "indexed": false,
          "internalType": "string",
          "name": "category",
          "type": "string"
        },
        {
          "indexed": false,
          "internalType": "uint256",
          "name": "releaseDate",
          "type": "uint256"
        },
        {
          "indexed": false,
          "internalType": "uint256",
          "name": "noOfStreams",
          "type": "uint256"
        }
      ],
      "name": "Played",
      "type": "event"
    },
    {
      "anonymous": false,
      "inputs": [
        {
          "indexed": false,
          "internalType": "address",
          "name": "subscriber",
          "type": "address"
        },
        {
          "indexed": false,
          "internalType": "uint256",
          "name": "price",
          "type": "uint256"
        },
        {
          "indexed": false,
          "internalType": "uint256",
          "name": "plan",
          "type": "uint256"
        }
      ],
      "name": "Subscribed",
      "type": "event"
    },
    {
      "anonymous": false,
      "inputs": [
        {
          "indexed": false,
          "internalType": "address",
          "name": "author",
          "type": "address"
        },
        {
          "indexed": false,
          "internalType": "string",
          "name": "title",
          "type": "string"
        },
        {
          "indexed": false,
          "internalType": "string",
          "name": "name",
          "type": "string"
        },
        {
          "indexed": false,
          "internalType": "string",
          "name": "category",
          "type": "string"
        },
        {
          "indexed": false,
          "internalType": "string",
          "name": "genre",
          "type": "string"
        },
        {
          "indexed": false,
          "internalType": "string[]",
          "name": "tracks",
          "type": "string[]"
        },
        {
          "indexed": false,
          "internalType": "string",
          "name": "coverImage",
          "type": "string"
        },
        {
          "indexed": false,
          "internalType": "uint256",
          "name": "releaseDate",
          "type": "uint256"
        }
      ],
      "name": "Uploaded",
      "type": "event"
    },
    {
      "anonymous": false,
      "inputs": [
        {
          "indexed": false,
          "internalType": "uint256",
          "name": "amount",
          "type": "uint256"
        },
        {
          "indexed": false,
          "internalType": "address",
          "name": "user",
          "type": "address"
        },
        {
          "indexed": false,
          "internalType": "uint256",
          "name": "balance",
          "type": "uint256"
        }
      ],
      "name": "Withdrawn",
      "type": "event"
    },
    {
      "inputs": [
        {
          "internalType": "uint256",
          "name": "",
          "type": "uint256"
        }
      ],
      "name": "albums",
      "outputs": [
        {
          "internalType": "address",
          "name": "author",
          "type": "address"
        },
        {
          "internalType": "uint256",
          "name": "id",
          "type": "uint256"
        },
        {
          "internalType": "string",
          "name": "title",
          "type": "string"
        },
        {
          "internalType": "string",
          "name": "name",
          "type": "string"
        },
        {
          "internalType": "string",
          "name": "category",
          "type": "string"
        },
        {
          "internalType": "string",
          "name": "genre",
          "type": "string"
        },
        {
          "internalType": "string",
          "name": "coverImage",
          "type": "string"
        },
        {
          "internalType": "uint256",
          "name": "releaseDate",
          "type": "uint256"
        },
        {
          "internalType": "uint256",
          "name": "ratings",
          "type": "uint256"
        },
        {
          "internalType": "uint256",
          "name": "noOfStreams",
          "type": "uint256"
        }
      ],
      "stateMutability": "view",
      "type": "function"
    },
    {
      "inputs": [
        {
          "internalType": "uint256",
          "name": "",
          "type": "uint256"
        }
      ],
      "name": "albumsList",
      "outputs": [
        {
          "internalType": "address",
          "name": "author",
          "type": "address"
        },
        {
          "internalType": "uint256",
          "name": "id",
          "type": "uint256"
        },
        {
          "internalType": "string",
          "name": "title",
          "type": "string"
        },
        {
          "internalType": "string",
          "name": "name",
          "type": "string"
        },
        {
          "internalType": "string",
          "name": "category",
          "type": "string"
        },
        {
          "internalType": "string",
          "name": "genre",
          "type": "string"
        },
        {
          "internalType": "string",
          "name": "coverImage",
          "type": "string"
        },
        {
          "internalType": "uint256",
          "name": "releaseDate",
          "type": "uint256"
        },
        {
          "internalType": "uint256",
          "name": "ratings",
          "type": "uint256"
        },
        {
          "internalType": "uint256",
          "name": "noOfStreams",
          "type": "uint256"
        }
      ],
      "stateMutability": "view",
      "type": "function"
    },
    {
      "inputs": [],
      "name": "getAllAlbums",
      "outputs": [
        {
          "components": [
            {
              "internalType": "address",
              "name": "author",
              "type": "address"
            },
            {
              "internalType": "uint256",
              "name": "id",
              "type": "uint256"
            },
            {
              "internalType": "string",
              "name": "title",
              "type": "string"
            },
            {
              "internalType": "string",
              "name": "name",
              "type": "string"
            },
            {
              "internalType": "string",
              "name": "category",
              "type": "string"
            },
            {
              "internalType": "string",
              "name": "genre",
              "type": "string"
            },
            {
              "internalType": "string[]",
              "name": "tracks",
              "type": "string[]"
            },
            {
              "internalType": "string",
              "name": "coverImage",
              "type": "string"
            },
            {
              "internalType": "uint256",
              "name": "releaseDate",
              "type": "uint256"
            },
            {
              "internalType": "uint256",
              "name": "ratings",
              "type": "uint256"
            },
            {
              "internalType": "uint256",
              "name": "noOfStreams",
              "type": "uint256"
            }
          ],
          "internalType": "struct MusicStore.Collection[]",
          "name": "",
          "type": "tuple[]"
        }
      ],
      "stateMutability": "view",
      "type": "function"
    },
    {
      "inputs": [
        {
          "internalType": "address",
          "name": "_user",
          "type": "address"
        }
      ],
      "name": "getUserDetails",
      "outputs": [
        {
          "components": [
            {
              "internalType": "bool",
              "name": "isSubscribed",
              "type": "bool"
            },
            {
              "internalType": "uint256",
              "name": "playableAlbums",
              "type": "uint256"
            },
            {
              "components": [
                {
                  "internalType": "address",
                  "name": "author",
                  "type": "address"
                },
                {
                  "internalType": "uint256",
                  "name": "id",
                  "type": "uint256"
                },
                {
                  "internalType": "string",
                  "name": "title",
                  "type": "string"
                },
                {
                  "internalType": "string",
                  "name": "name",
                  "type": "string"
                },
                {
                  "internalType": "string",
                  "name": "category",
                  "type": "string"
                },
                {
                  "internalType": "string",
                  "name": "genre",
                  "type": "string"
                },
                {
                  "internalType": "string[]",
                  "name": "tracks",
                  "type": "string[]"
                },
                {
                  "internalType": "string",
                  "name": "coverImage",
                  "type": "string"
                },
                {
                  "internalType": "uint256",
                  "name": "releaseDate",
                  "type": "uint256"
                },
                {
                  "internalType": "uint256",
                  "name": "ratings",
                  "type": "uint256"
                },
                {
                  "internalType": "uint256",
                  "name": "noOfStreams",
                  "type": "uint256"
                }
              ],
              "internalType": "struct MusicStore.Collection[]",
              "name": "uploadedAlbums",
              "type": "tuple[]"
            },
            {
              "internalType": "uint256[]",
              "name": "likedAlbums",
              "type": "uint256[]"
            },
            {
              "internalType": "uint256[]",
              "name": "ratedAlbums",
              "type": "uint256[]"
            },
            {
              "internalType": "uint256",
              "name": "amountEarned",
              "type": "uint256"
            }
          ],
          "internalType": "struct MusicStore.User",
          "name": "",
          "type": "tuple"
        }
      ],
      "stateMutability": "view",
      "type": "function"
    },
    {
      "inputs": [
        {
          "internalType": "address",
          "name": "_user",
          "type": "address"
        }
      ],
      "name": "getUserUploads",
      "outputs": [
        {
          "components": [
            {
              "internalType": "address",
              "name": "author",
              "type": "address"
            },
            {
              "internalType": "uint256",
              "name": "id",
              "type": "uint256"
            },
            {
              "internalType": "string",
              "name": "title",
              "type": "string"
            },
            {
              "internalType": "string",
              "name": "name",
              "type": "string"
            },
            {
              "internalType": "string",
              "name": "category",
              "type": "string"
            },
            {
              "internalType": "string",
              "name": "genre",
              "type": "string"
            },
            {
              "internalType": "string[]",
              "name": "tracks",
              "type": "string[]"
            },
            {
              "internalType": "string",
              "name": "coverImage",
              "type": "string"
            },
            {
              "internalType": "uint256",
              "name": "releaseDate",
              "type": "uint256"
            },
            {
              "internalType": "uint256",
              "name": "ratings",
              "type": "uint256"
            },
            {
              "internalType": "uint256",
              "name": "noOfStreams",
              "type": "uint256"
            }
          ],
          "internalType": "struct MusicStore.Collection[]",
          "name": "",
          "type": "tuple[]"
        }
      ],
      "stateMutability": "view",
      "type": "function"
    },
    {
      "inputs": [
        {
          "internalType": "address",
          "name": "_user",
          "type": "address"
        },
        {
          "internalType": "uint256",
          "name": "_albumId",
          "type": "uint256"
        }
      ],
      "name": "isLiked",
      "outputs": [
        {
          "internalType": "bool",
          "name": "liked",
          "type": "bool"
        }
      ],
      "stateMutability": "view",
      "type": "function"
    },
    {
      "inputs": [
        {
          "internalType": "uint256",
          "name": "_albumId",
          "type": "uint256"
        }
      ],
      "name": "likeAlbum",
      "outputs": [],
      "stateMutability": "nonpayable",
      "type": "function"
    },
    {
      "inputs": [
        {
          "internalType": "uint256",
          "name": "_id",
          "type": "uint256"
        }
      ],
      "name": "play",
      "outputs": [
        {
          "internalType": "bool",
          "name": "success",
          "type": "bool"
        }
      ],
      "stateMutability": "nonpayable",
      "type": "function"
    },
    {
      "inputs": [
        {
          "internalType": "uint256",
          "name": "_albumId",
          "type": "uint256"
        },
        {
          "internalType": "address",
          "name": "_user",
          "type": "address"
        },
        {
          "internalType": "uint256",
          "name": "_rating",
          "type": "uint256"
        }
      ],
      "name": "rateAlbum",
      "outputs": [],
      "stateMutability": "nonpayable",
      "type": "function"
    },
    {
      "inputs": [
        {
          "internalType": "uint256",
          "name": "",
          "type": "uint256"
        },
        {
          "internalType": "uint256",
          "name": "",
          "type": "uint256"
        }
      ],
      "name": "ratings",
      "outputs": [
        {
          "internalType": "uint256",
          "name": "",
          "type": "uint256"
        }
      ],
      "stateMutability": "view",
      "type": "function"
    },
    {
      "inputs": [
        {
          "internalType": "uint256",
          "name": "plan",
          "type": "uint256"
        },
        {
          "internalType": "address",
          "name": "_user",
          "type": "address"
        },
        {
          "internalType": "uint256",
          "name": "price",
          "type": "uint256"
        }
      ],
      "name": "subscribe",
      "outputs": [
        {
          "internalType": "bool",
          "name": "success",
          "type": "bool"
        }
      ],
      "stateMutability": "nonpayable",
      "type": "function"
    },
    {
      "inputs": [
        {
          "internalType": "string",
          "name": "_title",
          "type": "string"
        },
        {
          "internalType": "string",
          "name": "_name",
          "type": "string"
        },
        {
          "internalType": "string",
          "name": "_category",
          "type": "string"
        },
        {
          "internalType": "string",
          "name": "_genre",
          "type": "string"
        },
        {
          "internalType": "string[]",
          "name": "_tracks",
          "type": "string[]"
        },
        {
          "internalType": "string",
          "name": "_coverImage",
          "type": "string"
        },
        {
          "internalType": "uint256",
          "name": "_releaseDate",
          "type": "uint256"
        }
      ],
      "name": "uploadAlbum",
      "outputs": [],
      "stateMutability": "payable",
      "type": "function"
    },
    {
      "inputs": [
        {
          "internalType": "address",
          "name": "",
          "type": "address"
        }
      ],
      "name": "users",
      "outputs": [
        {
          "internalType": "bool",
          "name": "isSubscribed",
          "type": "bool"
        },
        {
          "internalType": "uint256",
          "name": "playableAlbums",
          "type": "uint256"
        },
        {
          "internalType": "uint256",
          "name": "amountEarned",
          "type": "uint256"
        }
      ],
      "stateMutability": "view",
      "type": "function"
    },
    {
      "inputs": [
        {
          "internalType": "uint256",
          "name": "_amount",
          "type": "uint256"
        }
      ],
      "name": "withdraw",
      "outputs": [],
      "stateMutability": "payable",
      "type": "function"
    }
  ],
  "bytecode": "0x60806040526000600255600060035534801561001a57600080fd5b50613e968061002a6000396000f3fe6080604052600436106100dd5760003560e01c806369f63db91161007f578063cc3d967b11610059578063cc3d967b146102dc578063dd6b471b14610319578063e5f5da2114610344578063ea5df0591461038a576100dd565b806369f63db9146102585780638b7b223b14610281578063a87430ba1461029d576100dd565b8063346d971d116100bb578063346d971d14610164578063412bd348146101a1578063482ef360146101de5780636898f82b1461021b576100dd565b8063021683e1146100e2578063291ab4da1461011f5780632e1a7d4d14610148575b600080fd5b3480156100ee57600080fd5b5061010960048036038101906101049190612b93565b6103d0565b6040516101169190612c01565b60405180910390f35b34801561012b57600080fd5b5061014660048036038101906101419190612c1c565b6105b2565b005b610162600480360381019061015d9190612c1c565b6106c3565b005b34801561017057600080fd5b5061018b60048036038101906101869190612c49565b6108a5565b6040516101989190612c01565b60405180910390f35b3480156101ad57600080fd5b506101c860048036038101906101c39190612c89565b610964565b6040516101d59190613003565b60405180910390f35b3480156101ea57600080fd5b5061020560048036038101906102009190613025565b610e37565b6040516102129190613074565b60405180910390f35b34801561022757600080fd5b50610242600480360381019061023d9190612c1c565b610e68565b60405161024f9190612c01565b60405180910390f35b34801561026457600080fd5b5061027f600480360381019061027a9190612b93565b61118a565b005b61029b600480360381019061029691906132aa565b61138d565b005b3480156102a957600080fd5b506102c460048036038101906102bf9190612c89565b611873565b6040516102d3939291906133f4565b60405180910390f35b3480156102e857600080fd5b5061030360048036038101906102fe9190612c89565b6118aa565b6040516103109190613606565b60405180910390f35b34801561032557600080fd5b5061032e611e73565b60405161033b9190613003565b60405180910390f35b34801561035057600080fd5b5061036b60048036038101906103669190612c1c565b612304565b6040516103819a99989796959493929190613681565b60405180910390f35b34801561039657600080fd5b506103b160048036038101906103ac9190612c1c565b612630565b6040516103c79a99989796959493929190613681565b60405180910390f35b600080600560008573ffffffffffffffffffffffffffffffffffffffff1673ffffffffffffffffffffffffffffffffffffffff1681526020019081526020016000209050600185141561049b576032816001016000828254610432919061376f565b9250508190555060018160000160006101000a81548160ff0219169083151502179055507ff94991dcbea6e8ac439cbc93bd9c62a4d39f04e0ad656df9a703f13552c2787f848487604051610489939291906137c5565b60405180910390a160019150506105ab565b60028514156105225760648160010160008282546104b9919061376f565b9250508190555060018160000160006101000a81548160ff0219169083151502179055507ff94991dcbea6e8ac439cbc93bd9c62a4d39f04e0ad656df9a703f13552c2787f848487604051610510939291906137c5565b60405180910390a160019150506105ab565b60038514156105a95760c8816001016000828254610540919061376f565b9250508190555060018160000160006101000a81548160ff0219169083151502179055507ff94991dcbea6e8ac439cbc93bd9c62a4d39f04e0ad656df9a703f13552c2787f848487604051610597939291906137c5565b60405180910390a160019150506105ab565b505b9392505050565b6000600560003373ffffffffffffffffffffffffffffffffffffffff1673ffffffffffffffffffffffffffffffffffffffff168152602001908152602001600020905060005b81600301805490508110156106be576006600084815260200190815260200160002060010154826003018281548110610634576106336137fc565b5b90600052602060002001541415610680576040517f08c379a000000000000000000000000000000000000000000000000000000000815260040161067790613877565b60405180910390fd5b8160030183908060018154018082558091505060019003906000526020600020016000909190919091505580806106b690613897565b9150506105f8565b505050565b6000600560003373ffffffffffffffffffffffffffffffffffffffff1673ffffffffffffffffffffffffffffffffffffffff1681526020019081526020016000206005015411610748576040517f08c379a000000000000000000000000000000000000000000000000000000000815260040161073f90613952565b60405180910390fd5b80600560003373ffffffffffffffffffffffffffffffffffffffff1673ffffffffffffffffffffffffffffffffffffffff16815260200190815260200160002060050154116107cc576040517f08c379a00000000000000000000000000000000000000000000000000000000081526004016107c3906139be565b60405180910390fd5b80600560003373ffffffffffffffffffffffffffffffffffffffff1673ffffffffffffffffffffffffffffffffffffffff168152602001908152602001600020600501600082825461081e91906139de565b925050819055507fcf7d23a3cbe4e8b36ff82fd1b05b1b17373dc7804b4ebbd6e2356716ef2023728133600560003373ffffffffffffffffffffffffffffffffffffffff1673ffffffffffffffffffffffffffffffffffffffff1681526020019081526020016000206005015460405161089a93929190613a12565b60405180910390a150565b600080600560008573ffffffffffffffffffffffffffffffffffffffff1673ffffffffffffffffffffffffffffffffffffffff168152602001908152602001600020905060005b8160030180549050811015610957576006600085815260200190815260200160002060010154826003018281548110610928576109276137fc565b5b906000526020600020015414156109445760019250505061095e565b808061094f90613897565b9150506108ec565b5060009150505b92915050565b6060600560008373ffffffffffffffffffffffffffffffffffffffff1673ffffffffffffffffffffffffffffffffffffffff168152602001908152602001600020600201805480602002602001604051908101604052809291908181526020016000905b82821015610e2c57838290600052602060002090600b0201604051806101600160405290816000820160009054906101000a900473ffffffffffffffffffffffffffffffffffffffff1673ffffffffffffffffffffffffffffffffffffffff1673ffffffffffffffffffffffffffffffffffffffff16815260200160018201548152602001600282018054610a5c90613a78565b80601f0160208091040260200160405190810160405280929190818152602001828054610a8890613a78565b8015610ad55780601f10610aaa57610100808354040283529160200191610ad5565b820191906000526020600020905b815481529060010190602001808311610ab857829003601f168201915b50505050508152602001600382018054610aee90613a78565b80601f0160208091040260200160405190810160405280929190818152602001828054610b1a90613a78565b8015610b675780601f10610b3c57610100808354040283529160200191610b67565b820191906000526020600020905b815481529060010190602001808311610b4a57829003601f168201915b50505050508152602001600482018054610b8090613a78565b80601f0160208091040260200160405190810160405280929190818152602001828054610bac90613a78565b8015610bf95780601f10610bce57610100808354040283529160200191610bf9565b820191906000526020600020905b815481529060010190602001808311610bdc57829003601f168201915b50505050508152602001600582018054610c1290613a78565b80601f0160208091040260200160405190810160405280929190818152602001828054610c3e90613a78565b8015610c8b5780601f10610c6057610100808354040283529160200191610c8b565b820191906000526020600020905b815481529060010190602001808311610c6e57829003601f168201915b5050505050815260200160068201805480602002602001604051908101604052809291908181526020016000905b82821015610d65578382906000526020600020018054610cd890613a78565b80601f0160208091040260200160405190810160405280929190818152602001828054610d0490613a78565b8015610d515780601f10610d2657610100808354040283529160200191610d51565b820191906000526020600020905b815481529060010190602001808311610d3457829003601f168201915b505050505081526020019060010190610cb9565b505050508152602001600782018054610d7d90613a78565b80601f0160208091040260200160405190810160405280929190818152602001828054610da990613a78565b8015610df65780601f10610dcb57610100808354040283529160200191610df6565b820191906000526020600020905b815481529060010190602001808311610dd957829003601f168201915b505050505081526020016008820154815260200160098201548152602001600a82015481525050815260200190600101906109c8565b505050509050919050565b60076020528160005260406000208181548110610e5357600080fd5b90600052602060002001600091509150505481565b600080600560003373ffffffffffffffffffffffffffffffffffffffff1673ffffffffffffffffffffffffffffffffffffffff1681526020019081526020016000206001015411610eee576040517f08c379a0000000000000000000000000000000000000000000000000000000008152600401610ee590613b42565b60405180910390fd5b600160066000848152602001908152602001600020600a016000828254610f15919061376f565b9250508190555067016345785d8a0000600560006006600086815260200190815260200160002060000160009054906101000a900473ffffffffffffffffffffffffffffffffffffffff1673ffffffffffffffffffffffffffffffffffffffff1673ffffffffffffffffffffffffffffffffffffffff1681526020019081526020016000206005016000828254610fac919061376f565b925050819055507f207bec8096cbbbcb0691cd428d807ded269a93baa7cd1e6ceb7fc2fcab7751e9826006600085815260200190815260200160002060000160009054906101000a900473ffffffffffffffffffffffffffffffffffffffff166006600086815260200190815260200160002060020160066000878152602001908152602001600020600401600660008881526020019081526020016000206008015460066000898152602001908152602001600020600a015460405161107896959493929190613bf7565b60405180910390a16001600560003373ffffffffffffffffffffffffffffffffffffffff1673ffffffffffffffffffffffffffffffffffffffff16815260200190815260200160002060010160008282546110d391906139de565b925050819055506000600560003373ffffffffffffffffffffffffffffffffffffffff1673ffffffffffffffffffffffffffffffffffffffff168152602001908152602001600020600101541415611181576000600560003373ffffffffffffffffffffffffffffffffffffffff1673ffffffffffffffffffffffffffffffffffffffff16815260200190815260200160002060000160006101000a81548160ff0219169083151502179055505b60019050919050565b6000600560008473ffffffffffffffffffffffffffffffffffffffff1673ffffffffffffffffffffffffffffffffffffffff1681526020019081526020016000209050600060066000868152602001908152602001600020905060005b8260040180549050811015611385576006600087815260200190815260200160002060010154836004018281548110611223576112226137fc565b5b9060005260206000200154141561126f576040517f08c379a000000000000000000000000000000000000000000000000000000000815260040161126690613cb2565b60405180910390fd5b82600401869080600181540180825580915050600190039060005260206000200160009091909190915055600760008781526020019081526020016000208490806001815401808255809150506001900390600052602060002001600090919091909150556000805b60076000898152602001908152602001600020805490508110156113465760076000898152602001908152602001600020818154811061131b5761131a6137fc565b5b906000526020600020015482611331919061376f565b9150808061133e90613897565b9150506112d8565b506007600088815260200190815260200160002080549050816113699190613d01565b836009018190555050808061137d90613897565b9150506111e7565b505050505050565b600160008154809291906113a090613897565b919050555060006040518061016001604052803373ffffffffffffffffffffffffffffffffffffffff168152602001600154815260200189815260200188815260200187815260200186815260200185815260200184815260200183815260200160008152602001600081525090508060066000600154815260200190815260200160002060008201518160000160006101000a81548173ffffffffffffffffffffffffffffffffffffffff021916908373ffffffffffffffffffffffffffffffffffffffff16021790555060208201518160010155604082015181600201908051906020019061149292919061294c565b5060608201518160030190805190602001906114af92919061294c565b5060808201518160040190805190602001906114cc92919061294c565b5060a08201518160050190805190602001906114e992919061294c565b5060c08201518160060190805190602001906115069291906129d2565b5060e082015181600701908051906020019061152392919061294c565b506101008201518160080155610120820151816009015561014082015181600a015590505060088190806001815401808255809150506001900390600052602060002090600b020160009091909190915060008201518160000160006101000a81548173ffffffffffffffffffffffffffffffffffffffff021916908373ffffffffffffffffffffffffffffffffffffffff1602179055506020820151816001015560408201518160020190805190602001906115e192919061294c565b5060608201518160030190805190602001906115fe92919061294c565b50608082015181600401908051906020019061161b92919061294c565b5060a082015181600501908051906020019061163892919061294c565b5060c08201518160060190805190602001906116559291906129d2565b5060e082015181600701908051906020019061167292919061294c565b506101008201518160080155610120820151816009015561014082015181600a01555050600560003373ffffffffffffffffffffffffffffffffffffffff1673ffffffffffffffffffffffffffffffffffffffff1681526020019081526020016000206002018190806001815401808255809150506001900390600052602060002090600b020160009091909190915060008201518160000160006101000a81548173ffffffffffffffffffffffffffffffffffffffff021916908373ffffffffffffffffffffffffffffffffffffffff16021790555060208201518160010155604082015181600201908051906020019061176f92919061294c565b50606082015181600301908051906020019061178c92919061294c565b5060808201518160040190805190602001906117a992919061294c565b5060a08201518160050190805190602001906117c692919061294c565b5060c08201518160060190805190602001906117e39291906129d2565b5060e082015181600701908051906020019061180092919061294c565b506101008201518160080155610120820151816009015561014082015181600a015550507f2021ccbb383bf4ba9f7c7597de47b1c1af34a08caa426d99381c57440b64c1803389898989898989604051611861989796959493929190613db8565b60405180910390a15050505050505050565b60056020528060005260406000206000915090508060000160009054906101000a900460ff16908060010154908060050154905083565b6118b2612a32565b600560008373ffffffffffffffffffffffffffffffffffffffff1673ffffffffffffffffffffffffffffffffffffffff1681526020019081526020016000206040518060c00160405290816000820160009054906101000a900460ff161515151581526020016001820154815260200160028201805480602002602001604051908101604052809291908181526020016000905b82821015611daa57838290600052602060002090600b0201604051806101600160405290816000820160009054906101000a900473ffffffffffffffffffffffffffffffffffffffff1673ffffffffffffffffffffffffffffffffffffffff1673ffffffffffffffffffffffffffffffffffffffff168152602001600182015481526020016002820180546119da90613a78565b80601f0160208091040260200160405190810160405280929190818152602001828054611a0690613a78565b8015611a535780601f10611a2857610100808354040283529160200191611a53565b820191906000526020600020905b815481529060010190602001808311611a3657829003601f168201915b50505050508152602001600382018054611a6c90613a78565b80601f0160208091040260200160405190810160405280929190818152602001828054611a9890613a78565b8015611ae55780601f10611aba57610100808354040283529160200191611ae5565b820191906000526020600020905b815481529060010190602001808311611ac857829003601f168201915b50505050508152602001600482018054611afe90613a78565b80601f0160208091040260200160405190810160405280929190818152602001828054611b2a90613a78565b8015611b775780601f10611b4c57610100808354040283529160200191611b77565b820191906000526020600020905b815481529060010190602001808311611b5a57829003601f168201915b50505050508152602001600582018054611b9090613a78565b80601f0160208091040260200160405190810160405280929190818152602001828054611bbc90613a78565b8015611c095780601f10611bde57610100808354040283529160200191611c09565b820191906000526020600020905b815481529060010190602001808311611bec57829003601f168201915b5050505050815260200160068201805480602002602001604051908101604052809291908181526020016000905b82821015611ce3578382906000526020600020018054611c5690613a78565b80601f0160208091040260200160405190810160405280929190818152602001828054611c8290613a78565b8015611ccf5780601f10611ca457610100808354040283529160200191611ccf565b820191906000526020600020905b815481529060010190602001808311611cb257829003601f168201915b505050505081526020019060010190611c37565b505050508152602001600782018054611cfb90613a78565b80601f0160208091040260200160405190810160405280929190818152602001828054611d2790613a78565b8015611d745780601f10611d4957610100808354040283529160200191611d74565b820191906000526020600020905b815481529060010190602001808311611d5757829003601f168201915b505050505081526020016008820154815260200160098201548152602001600a8201548152505081526020019060010190611946565b50505050815260200160038201805480602002602001604051908101604052809291908181526020018280548015611e0157602002820191906000526020600020905b815481526020019060010190808311611ded575b5050505050815260200160048201805480602002602001604051908101604052809291908181526020018280548015611e5957602002820191906000526020600020905b815481526020019060010190808311611e45575b505050505081526020016005820154815250509050919050565b60606008805480602002602001604051908101604052809291908181526020016000905b828210156122fb57838290600052602060002090600b0201604051806101600160405290816000820160009054906101000a900473ffffffffffffffffffffffffffffffffffffffff1673ffffffffffffffffffffffffffffffffffffffff1673ffffffffffffffffffffffffffffffffffffffff16815260200160018201548152602001600282018054611f2b90613a78565b80601f0160208091040260200160405190810160405280929190818152602001828054611f5790613a78565b8015611fa45780601f10611f7957610100808354040283529160200191611fa4565b820191906000526020600020905b815481529060010190602001808311611f8757829003601f168201915b50505050508152602001600382018054611fbd90613a78565b80601f0160208091040260200160405190810160405280929190818152602001828054611fe990613a78565b80156120365780601f1061200b57610100808354040283529160200191612036565b820191906000526020600020905b81548152906001019060200180831161201957829003601f168201915b5050505050815260200160048201805461204f90613a78565b80601f016020809104026020016040519081016040528092919081815260200182805461207b90613a78565b80156120c85780601f1061209d576101008083540402835291602001916120c8565b820191906000526020600020905b8154815290600101906020018083116120ab57829003601f168201915b505050505081526020016005820180546120e190613a78565b80601f016020809104026020016040519081016040528092919081815260200182805461210d90613a78565b801561215a5780601f1061212f5761010080835404028352916020019161215a565b820191906000526020600020905b81548152906001019060200180831161213d57829003601f168201915b5050505050815260200160068201805480602002602001604051908101604052809291908181526020016000905b828210156122345783829060005260206000200180546121a790613a78565b80601f01602080910402602001604051908101604052809291908181526020018280546121d390613a78565b80156122205780601f106121f557610100808354040283529160200191612220565b820191906000526020600020905b81548152906001019060200180831161220357829003601f168201915b505050505081526020019060010190612188565b50505050815260200160078201805461224c90613a78565b80601f016020809104026020016040519081016040528092919081815260200182805461227890613a78565b80156122c55780601f1061229a576101008083540402835291602001916122c5565b820191906000526020600020905b8154815290600101906020018083116122a857829003601f168201915b505050505081526020016008820154815260200160098201548152602001600a8201548152505081526020019060010190611e97565b50505050905090565b6008818154811061231457600080fd5b90600052602060002090600b02016000915090508060000160009054906101000a900473ffffffffffffffffffffffffffffffffffffffff169080600101549080600201805461236390613a78565b80601f016020809104026020016040519081016040528092919081815260200182805461238f90613a78565b80156123dc5780601f106123b1576101008083540402835291602001916123dc565b820191906000526020600020905b8154815290600101906020018083116123bf57829003601f168201915b5050505050908060030180546123f190613a78565b80601f016020809104026020016040519081016040528092919081815260200182805461241d90613a78565b801561246a5780601f1061243f5761010080835404028352916020019161246a565b820191906000526020600020905b81548152906001019060200180831161244d57829003601f168201915b50505050509080600401805461247f90613a78565b80601f01602080910402602001604051908101604052809291908181526020018280546124ab90613a78565b80156124f85780601f106124cd576101008083540402835291602001916124f8565b820191906000526020600020905b8154815290600101906020018083116124db57829003601f168201915b50505050509080600501805461250d90613a78565b80601f016020809104026020016040519081016040528092919081815260200182805461253990613a78565b80156125865780601f1061255b57610100808354040283529160200191612586565b820191906000526020600020905b81548152906001019060200180831161256957829003601f168201915b50505050509080600701805461259b90613a78565b80601f01602080910402602001604051908101604052809291908181526020018280546125c790613a78565b80156126145780601f106125e957610100808354040283529160200191612614565b820191906000526020600020905b8154815290600101906020018083116125f757829003601f168201915b50505050509080600801549080600901549080600a015490508a565b60066020528060005260406000206000915090508060000160009054906101000a900473ffffffffffffffffffffffffffffffffffffffff169080600101549080600201805461267f90613a78565b80601f01602080910402602001604051908101604052809291908181526020018280546126ab90613a78565b80156126f85780601f106126cd576101008083540402835291602001916126f8565b820191906000526020600020905b8154815290600101906020018083116126db57829003601f168201915b50505050509080600301805461270d90613a78565b80601f016020809104026020016040519081016040528092919081815260200182805461273990613a78565b80156127865780601f1061275b57610100808354040283529160200191612786565b820191906000526020600020905b81548152906001019060200180831161276957829003601f168201915b50505050509080600401805461279b90613a78565b80601f01602080910402602001604051908101604052809291908181526020018280546127c790613a78565b80156128145780601f106127e957610100808354040283529160200191612814565b820191906000526020600020905b8154815290600101906020018083116127f757829003601f168201915b50505050509080600501805461282990613a78565b80601f016020809104026020016040519081016040528092919081815260200182805461285590613a78565b80156128a25780601f10612877576101008083540402835291602001916128a2565b820191906000526020600020905b81548152906001019060200180831161288557829003601f168201915b5050505050908060070180546128b790613a78565b80601f01602080910402602001604051908101604052809291908181526020018280546128e390613a78565b80156129305780601f1061290557610100808354040283529160200191612930565b820191906000526020600020905b81548152906001019060200180831161291357829003601f168201915b50505050509080600801549080600901549080600a015490508a565b82805461295890613a78565b90600052602060002090601f01602090048101928261297a57600085556129c1565b82601f1061299357805160ff19168380011785556129c1565b828001600101855582156129c1579182015b828111156129c05782518255916020019190600101906129a5565b5b5090506129ce9190612a6a565b5090565b828054828255906000526020600020908101928215612a21579160200282015b82811115612a20578251829080519060200190612a1092919061294c565b50916020019190600101906129f2565b5b509050612a2e9190612a87565b5090565b6040518060c0016040528060001515815260200160008152602001606081526020016060815260200160608152602001600081525090565b5b80821115612a83576000816000905550600101612a6b565b5090565b5b80821115612aa75760008181612a9e9190612aab565b50600101612a88565b5090565b508054612ab790613a78565b6000825580601f10612ac95750612ae8565b601f016020900490600052602060002090810190612ae79190612a6a565b5b50565b6000604051905090565b600080fd5b600080fd5b6000819050919050565b612b1281612aff565b8114612b1d57600080fd5b50565b600081359050612b2f81612b09565b92915050565b600073ffffffffffffffffffffffffffffffffffffffff82169050919050565b6000612b6082612b35565b9050919050565b612b7081612b55565b8114612b7b57600080fd5b50565b600081359050612b8d81612b67565b92915050565b600080600060608486031215612bac57612bab612af5565b5b6000612bba86828701612b20565b9350506020612bcb86828701612b7e565b9250506040612bdc86828701612b20565b9150509250925092565b60008115159050919050565b612bfb81612be6565b82525050565b6000602082019050612c166000830184612bf2565b92915050565b600060208284031215612c3257612c31612af5565b5b6000612c4084828501612b20565b91505092915050565b60008060408385031215612c6057612c5f612af5565b5b6000612c6e85828601612b7e565b9250506020612c7f85828601612b20565b9150509250929050565b600060208284031215612c9f57612c9e612af5565b5b6000612cad84828501612b7e565b91505092915050565b600081519050919050565b600082825260208201905092915050565b6000819050602082019050919050565b612ceb81612b55565b82525050565b612cfa81612aff565b82525050565b600081519050919050565b600082825260208201905092915050565b60005b83811015612d3a578082015181840152602081019050612d1f565b83811115612d49576000848401525b50505050565b6000601f19601f8301169050919050565b6000612d6b82612d00565b612d758185612d0b565b9350612d85818560208601612d1c565b612d8e81612d4f565b840191505092915050565b600081519050919050565b600082825260208201905092915050565b6000819050602082019050919050565b6000612dd18383612d60565b905092915050565b6000602082019050919050565b6000612df182612d99565b612dfb8185612da4565b935083602082028501612e0d85612db5565b8060005b85811015612e495784840389528151612e2a8582612dc5565b9450612e3583612dd9565b925060208a01995050600181019050612e11565b50829750879550505050505092915050565b600061016083016000830151612e746000860182612ce2565b506020830151612e876020860182612cf1565b5060408301518482036040860152612e9f8282612d60565b91505060608301518482036060860152612eb98282612d60565b91505060808301518482036080860152612ed38282612d60565b91505060a083015184820360a0860152612eed8282612d60565b91505060c083015184820360c0860152612f078282612de6565b91505060e083015184820360e0860152612f218282612d60565b915050610100830151612f38610100860182612cf1565b50610120830151612f4d610120860182612cf1565b50610140830151612f62610140860182612cf1565b508091505092915050565b6000612f798383612e5b565b905092915050565b6000602082019050919050565b6000612f9982612cb6565b612fa38185612cc1565b935083602082028501612fb585612cd2565b8060005b85811015612ff15784840389528151612fd28582612f6d565b9450612fdd83612f81565b925060208a01995050600181019050612fb9565b50829750879550505050505092915050565b6000602082019050818103600083015261301d8184612f8e565b905092915050565b6000806040838503121561303c5761303b612af5565b5b600061304a85828601612b20565b925050602061305b85828601612b20565b9150509250929050565b61306e81612aff565b82525050565b60006020820190506130896000830184613065565b92915050565b600080fd5b600080fd5b7f4e487b7100000000000000000000000000000000000000000000000000000000600052604160045260246000fd5b6130d182612d4f565b810181811067ffffffffffffffff821117156130f0576130ef613099565b5b80604052505050565b6000613103612aeb565b905061310f82826130c8565b919050565b600067ffffffffffffffff82111561312f5761312e613099565b5b61313882612d4f565b9050602081019050919050565b82818337600083830152505050565b600061316761316284613114565b6130f9565b90508281526020810184848401111561318357613182613094565b5b61318e848285613145565b509392505050565b600082601f8301126131ab576131aa61308f565b5b81356131bb848260208601613154565b91505092915050565b600067ffffffffffffffff8211156131df576131de613099565b5b602082029050602081019050919050565b600080fd5b6000613208613203846131c4565b6130f9565b9050808382526020820190506020840283018581111561322b5761322a6131f0565b5b835b8181101561327257803567ffffffffffffffff8111156132505761324f61308f565b5b80860161325d8982613196565b8552602085019450505060208101905061322d565b5050509392505050565b600082601f8301126132915761329061308f565b5b81356132a18482602086016131f5565b91505092915050565b600080600080600080600060e0888a0312156132c9576132c8612af5565b5b600088013567ffffffffffffffff8111156132e7576132e6612afa565b5b6132f38a828b01613196565b975050602088013567ffffffffffffffff81111561331457613313612afa565b5b6133208a828b01613196565b965050604088013567ffffffffffffffff81111561334157613340612afa565b5b61334d8a828b01613196565b955050606088013567ffffffffffffffff81111561336e5761336d612afa565b5b61337a8a828b01613196565b945050608088013567ffffffffffffffff81111561339b5761339a612afa565b5b6133a78a828b0161327c565b93505060a088013567ffffffffffffffff8111156133c8576133c7612afa565b5b6133d48a828b01613196565b92505060c06133e58a828b01612b20565b91505092959891949750929550565b60006060820190506134096000830186612bf2565b6134166020830185613065565b6134236040830184613065565b949350505050565b61343481612be6565b82525050565b600082825260208201905092915050565b600061345682612cb6565b613460818561343a565b93508360208202850161347285612cd2565b8060005b858110156134ae578484038952815161348f8582612f6d565b945061349a83612f81565b925060208a01995050600181019050613476565b50829750879550505050505092915050565b600081519050919050565b600082825260208201905092915050565b6000819050602082019050919050565b60006134f88383612cf1565b60208301905092915050565b6000602082019050919050565b600061351c826134c0565b61352681856134cb565b9350613531836134dc565b8060005b8381101561356257815161354988826134ec565b975061355483613504565b925050600181019050613535565b5085935050505092915050565b600060c083016000830151613587600086018261342b565b50602083015161359a6020860182612cf1565b50604083015184820360408601526135b2828261344b565b915050606083015184820360608601526135cc8282613511565b915050608083015184820360808601526135e68282613511565b91505060a08301516135fb60a0860182612cf1565b508091505092915050565b60006020820190508181036000830152613620818461356f565b905092915050565b61363181612b55565b82525050565b600082825260208201905092915050565b600061365382612d00565b61365d8185613637565b935061366d818560208601612d1c565b61367681612d4f565b840191505092915050565b600061014082019050613697600083018d613628565b6136a4602083018c613065565b81810360408301526136b6818b613648565b905081810360608301526136ca818a613648565b905081810360808301526136de8189613648565b905081810360a08301526136f28188613648565b905081810360c08301526137068187613648565b905061371560e0830186613065565b613723610100830185613065565b613731610120830184613065565b9b9a5050505050505050505050565b7f4e487b7100000000000000000000000000000000000000000000000000000000600052601160045260246000fd5b600061377a82612aff565b915061378583612aff565b9250827fffffffffffffffffffffffffffffffffffffffffffffffffffffffffffffffff038211156137ba576137b9613740565b5b828201905092915050565b60006060820190506137da6000830186613628565b6137e76020830185613065565b6137f46040830184613065565b949350505050565b7f4e487b7100000000000000000000000000000000000000000000000000000000600052603260045260246000fd5b7f416c62756d20486173206265656e206c696b656420616c726561647900000000600082015250565b6000613861601c83613637565b915061386c8261382b565b602082019050919050565b6000602082019050818103600083015261389081613854565b9050919050565b60006138a282612aff565b91507fffffffffffffffffffffffffffffffffffffffffffffffffffffffffffffffff8214156138d5576138d4613740565b5b600182019050919050565b7f596f7520446f206e6f74206861766520656e6f7567682062616c616e6365207460008201527f6f2077697468647261772066726f6d0000000000000000000000000000000000602082015250565b600061393c602f83613637565b9150613947826138e0565b604082019050919050565b6000602082019050818103600083015261396b8161392f565b9050919050565b7f496e737566696369656e742042616c616e636500000000000000000000000000600082015250565b60006139a8601383613637565b91506139b382613972565b602082019050919050565b600060208201905081810360008301526139d78161399b565b9050919050565b60006139e982612aff565b91506139f483612aff565b925082821015613a0757613a06613740565b5b828203905092915050565b6000606082019050613a276000830186613065565b613a346020830185613628565b613a416040830184613065565b949350505050565b7f4e487b7100000000000000000000000000000000000000000000000000000000600052602260045260246000fd5b60006002820490506001821680613a9057607f821691505b60208210811415613aa457613aa3613a49565b5b50919050565b7f596f7520446f204e6f74206861766520616e206163746976652073756273637260008201527f697074696f6e20746f20706c617920616c62756d2c20506c656173652053756260208201527f7363726962650000000000000000000000000000000000000000000000000000604082015250565b6000613b2c604683613637565b9150613b3782613aaa565b606082019050919050565b60006020820190508181036000830152613b5b81613b1f565b9050919050565b60008190508160005260206000209050919050565b60008154613b8481613a78565b613b8e8186613637565b94506001821660008114613ba95760018114613bbb57613bee565b60ff1983168652602086019350613bee565b613bc485613b62565b60005b83811015613be657815481890152600182019150602081019050613bc7565b808801955050505b50505092915050565b600060c082019050613c0c6000830189613065565b613c196020830188613628565b8181036040830152613c2b8187613b77565b90508181036060830152613c3f8186613b77565b9050613c4e6080830185613065565b613c5b60a0830184613065565b979650505050505050565b7f416c62756d20486173206265656e20526174656420616c726561647900000000600082015250565b6000613c9c601c83613637565b9150613ca782613c66565b602082019050919050565b60006020820190508181036000830152613ccb81613c8f565b9050919050565b7f4e487b7100000000000000000000000000000000000000000000000000000000600052601260045260246000fd5b6000613d0c82612aff565b9150613d1783612aff565b925082613d2757613d26613cd2565b5b828204905092915050565b600082825260208201905092915050565b6000613d4e82612d99565b613d588185613d32565b935083602082028501613d6a85612db5565b8060005b85811015613da65784840389528151613d878582612dc5565b9450613d9283612dd9565b925060208a01995050600181019050613d6e565b50829750879550505050505092915050565b600061010082019050613dce600083018b613628565b8181036020830152613de0818a613648565b90508181036040830152613df48189613648565b90508181036060830152613e088188613648565b90508181036080830152613e1c8187613648565b905081810360a0830152613e308186613d43565b905081810360c0830152613e448185613648565b9050613e5360e0830184613065565b999850505050505050505056fea2646970667358221220072864337773fd9531be6c3d1e2c3ec6a1e81e1e0cda6b83d77cead96c9649fd64736f6c63430008090033",
  "linkReferences": {},
  "deployedLinkReferences": {}
}